:020000040000FA
:0400000035EF0DF0DB
:100800000025782C25782C25642C25632C25580070
:0108100000E7
:1008120045C0D9FF46C0DAFFDECFF6FFDDCFF7FFD6
:100822000800F550250AD8A419EF04F01BEF04F0D4
:1008320072EF05F045C0D9FF46C0DAFFDE2A000E8E
:10084200DD22000E0001636F000E626F62C066F06F
:1008520063C067F06469656945C0D9FF46C0DAFFC5
:10086200DECFF6FFDDCFF7FF0800F550630AD8A40C
:100872003DEF04F03FEF04F066EF04F045C0D9FF0E
:1008820046C0DAFFDE2A000EDD2247C0D9FF48C08B
:10089200DAFFDFCF49F0020EDE26DFCF4AF0000E8C
:1008A200DD2249C0D9FF4AC0DAFFDF505D6E43C086
:1008B2001CF044C01DF05DC01EF012EC0CF01CC018
:1008C20043F01DC044F08DEF05F045C0D9FF46C08E
:1008D200DAFFDECFF6FFDDCFF7FF0800F550640A3E
:1008E200D8B476EF04F078EF04F08AEF04F045C054
:1008F200D9FF46C0DAFFDECFF6FFDDCFF7FF0800F3
:10090200F550690AD8A488EF04F08AEF04F0CAEF20
:1009120004F045C0D9FF46C0DAFFDE2A000EDD2210
:1009220047C0D9FF48C0DAFFDFCF49F0020EDE260A
:10093200DFCF4AF0000EDD2249C0D9FF4AC0DAFFFC
:10094200DECF4DF0DDCF4EF0000E4EBEFF0E4F6EED
:10095200506E516E526E536E546E43C01CF044C0C2
:100962001DF04DC01EF04EC01FF04FC020F050C011
:1009720021F051C022F052C023F053C024F054C0E1
:1009820025F08EEC05F01CC043F01DC044F08DEF45
:1009920005F045C0D9FF46C0DAFFDECFF6FFDDCF56
:1009A200F7FF0800F550780AD8B4DAEF04F0DCEF6C
:1009B20004F0EEEF04F045C0D9FF46C0DAFFDECF07
:1009C200F6FFDDCFF7FF0800F550580AD8A4ECEF88
:1009D20004F0EEEF04F03CEF05F045C0D9FF46C04D
:1009E200DAFFDECFF6FFDDCFF7FF0800F5CF5DF0CF
:1009F20045C0D9FF46C0DAFFDE2A000EDD2247C01D
:100A0200D9FF48C0DAFFDFCF49F0020EDE26DFCF82
:100A12004AF0000EDD2249C0D9FF4AC0DAFFDECF1C
:100A22004BF0DDCF4CF04BC055F04CC056F0576A3E
:100A3200586A596A5A6A5B6A5C6A43C01CF044C0CD
:100A42001DF055C01EF056C01FF057C020F058C010
:100A520021F059C022F05AC023F05BC024F05CC0E0
:100A620025F05DC026F0FFEC06F01CC043F01DC06F
:100A720044F08DEF05F045C0D9FF46C0DAFFDECF66
:100A8200F6FFDDCFF7FF0800F550250AD8A44CEF9A
:100A920005F04EEF05F065EF05F045C0D9FF46C001
:100AA200DAFFDE2A000EDD22000E026E250E016E36
:100AB20043C003F044C004F0E1EC09F0000E446EC0
:100AC200010E436E8DEF05F045C0D9FF46C0DAFF37
:100AD200DE2A000EDD22000E446E000E436E8DEF04
:100AE20005F045C0D9FF46C0DAFFDECFF6FFDDCF05
:100AF200F7FF0800F550016E026A43C003F044C0DC
:100B020004F0E1EC09F045C0D9FF46C0DAFFDE2A65
:100B1200000EDD225FEF05F012001EC036F01FC08E
:100B220037F020C038F021C039F022C03AF023C09B
:100B32003BF024C03CF025C03DF03DBEA3EF05F0E4
:100B4200A6EF05F0010EA7EF05F0000E346E356A30
:100B520034503510D8B4B0EF05F0B2EF05F0C2EF63
:100B620005F03D1E3C1E3B1E3A1E391E381E371E26
:100B7200366C000E3722382239223A223B223C229E
:100B82003D22000165BFC8EF05F0CAEF05F0CBEFCB
:100B920005F0669365BFD8EF05F0655106E164057F
:100BA200D8B0D6EF05F0D8EF05F0DEEF05F0000E75
:100BB200316E010E306EE2EF05F064C030F065C0B8
:100BC20031F062C032F063C033F034503510D8A433
:100BD200EDEF05F0EFEF05F0F6EF05F066A5F4EFA7
:100BE20005F0F6EF05F0F9EF05F03206D8A033066E
:100BF200000E3F6E1F0E3E6E000E896F7DEF06F0F7
:100C02003E06D8A03F066A0E3E24D96E000E3F2053
:100C1200DA6E36C001F037C002F038C003F039C0D6
:100C220004F03AC005F03BC006F03CC007F03DC0FE
:100C320008F00A0E096E000E0A6E000E0B6E000E10
:100C42000C6E000E0D6E000E0E6E000E0F6E000E7C
:100C5200106E2FEC09F001C026F002C027F003C08D
:100C620028F004C029F005C02AF006C02BF007C006
:100C72002CF008C02DF026C013F028C014F0D9ECD7
:100C82000CF01350300FDF6E3006D8A0310632065A
:100C9200D8A0330636C001F037C002F038C003F0E6
:100CA20039C004F03AC005F03BC006F03CC007F082
:100CB2003DC008F00A0E096E000E0A6E000E0B6EA1
:100CC200000E0C6E000E0D6E000E0E6E000E0F6EFC
:100CD200000E106E6BEC08F001C036F002C037F067
:100CE20003C038F004C039F005C03AF006C03BF04A
:100CF20007C03CF008C03DF03FBE88EF06F03F5011
:100D020008E13E04D8A088EF06F08AEF06F0BBEFB8
:100D120006F036503710381039103A103B103C109C
:100D22003D10D8A497EF06F099EF06F001EF06F018
:100D320031BEA6EF06F0315006E13004D8B0A4EF80
:100D420006F0A6EF06F001EF06F033BEB1EF06F0B3
:100D5200335008E13204D8A0B1EF06F0B3EF06F049
:100D6200BBEF06F0000166B3B9EF06F0BBEF06F089
:100D720001EF06F034503510D8A4C2EF06F0C4EFEC
:100D820006F0CCEF06F0000166A5CAEF06F0CCEF44
:100D920006F0EAEF06F03E06D8A03F0634503510C2
:100DA200D8A4D6EF06F0D8EF06F0DEEF06F0000E7C
:100DB2002F6E2B0E2E6EE2EF06F0000E2F6E2D0E12
:100DC2002E6E6A0E3E24D96E000E3F20DA6E2EC0C1
:100DD200DFFF1CC011F01DC012F06A0E3E24136E1C
:100DE200000E3F20146E32C015F033C016F046ECF0
:100DF2000AF011C01CF012C01DF01200000165BF04
:100E020005EF07F007EF07F008EF07F0669365BFFD
:100E120015EF07F0655106E16405D8B013EF07F04E
:100E220015EF07F01BEF07F0000E346E010E336E64
:100E32001FEF07F064C033F065C034F062C035F0D4
:100E420063C036F066A928EF07F02AEF07F02EEF0D
:100E520007F0FE0E3526FF0E36221EC037F01FC0E9
:100E620038F020C039F021C03AF022C03BF023C054
:100E72003CF024C03DF025C03EF0000E406E1F0E37
:100E82003F6E000E896FF9EF07F03F06D8A04006CB
:100E92000F0E3714416E426A42BE59EF07F04250BC
:100EA20009E10A0E415CD8A059EF07F05BEF07F0A9
:100EB20063EF07F0570E4124416E000E4220426E4E
:100EC20069EF07F0300E4124416E000E4220426E5F
:100ED200BF0E276EFF0E286E2650296E2A6A2750F3
:100EE200292628502A222A500AE11A0E295CD8A063
:100EF2007DEF07F080EF07F0010E81EF07F0000EA3
:100F02002F6E306A2F503010D8B48AEF07F08CEF72
:100F120007F0BCEF07F09F0E276EFF0E286E200E23
:100F22004110296E000E42102A6E275029262850A1
:100F32002A222A500AE11A0E295CD8A0A3EF07F050
:100F4200A6EF07F0010EA7EF07F0000E316E326A2E
:100F520031503210D8B4B0EF07F0B2EF07F0BCEF67
:100F620007F041C007F042C008F0E3EC0BF007C005
:100F720041F008C042F06A0E3F24D96E000E4020B4
:100F8200DA6E41C0DFFF3306D8A034063506D8A09A
:100F9200360637C027F038C028F039C029F03AC0E9
:100FA2002AF03BC02BF03CC02CF03DC02DF03EC0DF
:100FB2002EF0050EE6EF07F0D8902E322D322C32AD
:100FC2002B322A32293228322732E82EDDEF07F07F
:100FD20027C037F028C038F029C039F02AC03AF0CB
:100FE2002BC03BF02CC03CF02DC03DF02EC03EF09B
:100FF20040BE05EF08F0405009E1020E3F5CD8A068
:1010020005EF08F007EF08F038EF08F03750381016
:1010120039103A103B103C103D103E10D8A414EF8A
:1010220008F016EF08F046EF07F034BE23EF08F0A1
:10103200345006E13304D8B021EF08F023EF08F072
:1010420046EF07F036BE2EEF08F0365008E13504C1
:10105200D8A02EEF08F030EF08F038EF08F00001CA
:1010620066B336EF08F038EF08F046EF07F00001FC
:1010720066A93EEF08F040EF08F056EF08F03F0691
:10108200D8A040066A0E3F24D96E000E4020DA6EC8
:1010920026C0DFFF3F06D8A040066A0E3F24D96E65
:1010A200000E4020DA6E300EDF6E1CC011F01DC043
:1010B20012F06A0E3F24136E000E4020146E35C0EB
:1010C20015F036C016F046EC0AF011C01CF012C042
:1010D2001DF01200000E126E10BE74EF08F072EFD7
:1010E20008F086EF08F0101E0F1E0E1E0D1E0C1EBD
:1010F2000B1E0A1E096C000E0A220B220C220D2264
:101102000E220F221022010E126E08BE8DEF08F081
:101112008BEF08F09FEF08F0081E071E061E051E43
:10112200041E031E021E016C000E02220322042270
:101132000522062207220822010E121A20EE13F0BF
:10114200070EDE6AE806FDE209500A100B100C10C9
:101152000D100E100F101010D8B4B2EF08F0B4EF4B
:1011620008F006EF09F0010E116EC2EF08F0D890F8
:1011720009360A360B360C360D360E360F36103659
:10118200112A10AEC7EF08F0C9EF08F0B8EF08F067
:10119200D8901336143615361636173618361936D1
:1011A2001A360950015C0A5002580B5003580C5071
:1011B20004580D5005580E5006580F50075810503D
:1011C2000858D8A0E7EF08F0E9EF08F0FAEF08F0C6
:1011D2000950015E0A50025A0B50035A0C50045A2D
:1011E2000D50055A0E50065A0F50075A1050085A01
:1011F2001380D89010320F320E320D320C320B3275
:101202000A320932112EC9EF08F01250D8B40CEF8D
:1012120009F00EEF09F01EEF09F01A1E191E181E32
:10122200171E161E151E141E136C000E14221522F4
:1012320016221722182219221A2213C001F014C0F2
:1012420002F015C003F016C004F017C005F018C074
:1012520006F019C007F01AC008F01200000E126E54
:1012620008BE38EF09F036EF09F04AEF09F0081E20
:10127200071E061E051E041E031E021E016C000E22
:101282000222032204220522062207220822010E3C
:10129200126E10BE51EF09F04FEF09F061EF09F045
:1012A200101E0F1E0E1E0D1E0C1E0B1E0A1E096C9A
:1012B200000E0A220B220C220D220E220F221022D5
:1012C20009500A100B100C100D100E100F101010F8
:1012D200D8B46EEF09F070EF09F0B8EF09F0010E23
:1012E200116E7EEF09F0D89009360A360B360C36AD
:1012F2000D360E360F361036112A10AE83EF09F076
:1013020085EF09F074EF09F00950015C0A500258A8
:101312000B5003580C5004580D5005580E500658E7
:101322000F50075810500858D8A09AEF09F09CEFB8
:1013320009F0ACEF09F00950015E0A50025A0B5055
:10134200035A0C50045A0D50055A0E50065A0F50AB
:10135200075A1050085AD89010320F320E320D32FE
:101362000C320B320A320932112E85EF09F012507B
:10137200D8B4BEEF09F0C0EF09F0D0EF09F0081EB3
:10138200071E061E051E041E031E021E016C000E11
:10139200022203220422052206220722082201C079
:1013A20001F002C002F003C003F004C004F005C063
:1013B20005F006C006F007C007F008C008F01200EA
:1013C20003500410D8B4E8EF09F0EAEF09F0F3EFA4
:1013D20009F003500410D8A4F1EF09F0F3EF09F07B
:1013E200F8EF09F00150FEEC0DF045EF0AF020EEA7
:1013F20004F00350D9260450DA22DE50DE10D8B4AD
:1014020005EF0AF007EF0AF022EF0AF020EE04F0EF
:101412000350D9260450DA2210EE02F00350E126DE
:101422000450E222DE50E65CE650800A096EDE508D
:10143200800A0958D8B020EF0AF022EF0AF045EFEF
:101442000AF020EE02F00350D9260450DA22DECF51
:1014520005F0DDCF06F003C0D9FF04C0DAFFDECF0E
:1014620007F0DDCF08F005500724D96E065008209A
:10147200DA6E01C0DFFF20EE02F00350D9260450DD
:10148200DA22DE2A000EDD221200000166A14CEFF4
:101492000AF04EEF0AF058EF0AF013C00AF014C037
:1014A2000BF011C00CF012C00DF0B7EC0CF016BE30
:1014B2005DEF0AF05FEF0AF065EF0AF015C01AF06F
:1014C20016C01BF069EF0AF0000E1B6E000E1A6EBA
:1014D200000E196E000E186E7BEF0AF0000E026EFF
:1014E200200E016E11C003F012C004F0E1EC09F00D
:1014F200184A192A1A50185C1950800A176E1B5084
:10150200800A1758D8A088EF0AF08AEF0AF06FEF26
:101512000AF0000166B190EF0AF092EF0AF09CEF38
:101522000AF013C00AF014C00BF011C00CF012C084
:101532000DF0B7EC0CF013C001F014C002F08AEC0D
:101542000DF01A500124116E1B500220126E12006F
:101552000B6EF6EC0DF00B50ECEC0DF00450ECECD5
:101562000DF0FAEC0DF00B500109ECEC0DF0000E51
:101572000001696F000E686FE8EF0AF0010E68253E
:10158200096E000E69210A6E0750091807E108501A
:101592000A18D8A4CFEF0AF0D1EF0AF0DBEF0AF075
:1015A200010EA5EC0DF005C0D9FF06C0DAFFDF6E13
:1015B200E3EF0AF0000EA5EC0DF005C0D9FF06C05E
:1015C200DAFFDF6E054A062A0001684B692B0750D5
:1015D200685D6951800A096E0850800A0958D8A0CE
:1015E200F5EF0AF0F7EF0AF0BFEF0AF0F2EC0DF0B8
:1015F2000B0E0A6E260E096E5E0EE82EFED7092E1F
:10160200FCD70A2EFAD71200C00EDAEC0DF08A0EC1
:101612000001AD6F000EAE6F010EAF6F080EB06F1E
:101622009EC0B1F0B26B9FC0B3F0B46BA0C0B5F076
:10163200B66BA1C0B7F0B86BA2C0B9F0BA6B3FEC01
:101642000CF0000E0001696F000E686F35EF0BF0B1
:101652008A0E6825D96E000E6921DA6EDF50CFEC52
:101662000DF00001684B692B8A0E016E000E026EAE
:101672008AEC0DF001500001685D02506959D8A052
:1016820045EF0BF047EF0BF029EF0BF012000A6E5B
:10169200F6EC0DF00A50ECEC0DF00350ECEC0DF012
:1016A200000E0001696F000E686F64EF0BF004C05A
:1016B200D9FF05C0DAFFDF50ECEC0DF0044A052A31
:1016C2000001684B692B0650685D6951800A086EFB
:1016D2000750800A0858D8A071EF0BF073EF0BF097
:1016E20058EF0BF0F2EC0DF00B0E096E260E086EA1
:1016F2005E0EE82EFED7082EFCD7092EFAD712006E
:1017020091EC0CF068EC0CF0B50E036ECD0E046E8D
:10171200000E056E000E076E060E066EA00E48EC59
:101722000BF0FF0E036ECF0E046E000E056E000E60
:10173200076E010E066EA00E48EC0BF0B30E046E9F
:101742009E0E056E000E066E000E086E090E076EE6
:10175200A00EA9EC0AF005EC0BF0AEEF0BF000EFD7
:1017620000F0A9C05EF0AAC05FF0000E0001616F38
:10177200000E606FD0EF0BF0A7C043F0A8C044F09A
:101782005E0E456E000E466EABC047F0ACC048F030
:1017920009EC04F0435000016027445061235EC00D
:1017A200F6FF5FC0F7FF0800F5500009D8A4DCEF90
:1017B2000BF0DEEF0BF0BDEF0BF060C0A7F061C0E5
:1017C200A8F012009F0E096EFF0E0A6E07C00BF002
:1017D20008C00CF009500B260A500C220C500AE1EA
:1017E2001A0E0B5CD8A0F8EF0BF0FBEF0BF0010E1A
:1017F200FCEF0BF0000E0D6E0E6A0D500E10D8B4F9
:1018020005EF0CF007EF0CF00DEF0CF05F0E071474
:10181200076E086A11EF0CF007C007F008C008F065
:101822001200000162516311D8A41AEF0CF01CEFF0
:101832000CF022EF0CF062C01FF063C020F028EF22
:101842000CF0FF0E62251F6EFF0E6321206E1EC07C
:101852006AF0000E6B6F1CC011F01DC012F06A0E10
:10186200136E000E146E1FC015F020C016F046EC69
:101872000AF011C01CF012C01DF01200B10E0001DE
:10188200BD6F000EBE6FADC0BFF0AEC0C0F0000EA7
:10189200C26F000EC16F000EC46F000EC36FBF0E89
:1018A200A76F000EA86FAFC0A9F0B0C0AAF0BD0E1E
:1018B200AB6F000EAC6FB2EC0BF00001C151AD2565
:1018C200D96EC251AE21DA6E000EDF6E1200800EAA
:1018D200DAEC0DF0000E0001696F000E686F7EEF0A
:1018E2000CF0C50E6825D96E000E6921DA6EDF5044
:1018F200CFEC0DF00001684B692BC50E016E000E96
:10190200026E8AEC0DF001500001685D02506959C7
:10191200D8A08EEF0CF090EF0CF072EF0CF01200EA
:10192200720ED36E0F0EC16E93809382800EC76EBD
:10193200280EC66E000EC56E130EC86E000E956E92
:10194200000E8C6E000E966E000E8D6E020EDAEC9C
:101952000DF0060EDAEC0DF00F0EDAEC0DF0280E9B
:10196200DAEC0DF0010EDAEC0DF01200000E106E42
:10197200000E0F6EC8EF0CF00EC001F0026A0CC030
:1019820003F00DC004F0E1EC09F00F4A102A0F50E9
:101992000A24D96E10500B20DA6EDF500E6E0E50F4
:1019A200D8A4D6EF0CF0D8EF0CF0BDEF0CF012007B
:1019B20014BEE6EF0CF0145006E11304D8B0E4EFC5
:1019C2000CF0E6EF0CF0F4EF0CF013C015F014C0BD
:1019D20016F0151E161E154A162A15C013F016C04B
:1019E20014F0F8EF0CF013C013F014C014F012004E
:1019F2009F0E036EFF0E046E200E0110056E000E88
:101A02000210066E035005260450062206500AE113
:101A12001A0E055CD8A010EF0DF013EF0DF0010EB9
:101A220014EF0DF0000E016E026A1200026E8D803C
:101A32001A0E016EF80EE82EFED7012EFCD700D04A
:101A420002C08CFF1A0E016EF80EE82EFED7012E90
:101A5200FCD700D08D901A0E016EF80EE82EFED73C
:101A6200012EFCD700D01200CA0EF66E1B0EF76EC6
:101A7200000EF86E00EEC5F010EE0EF00900F5CF84
:101A8200EEFFE550E150FAE100EE60F0470EEE6A3B
:101A9200E806FDE1000EF86E080EF76E000181EF18
:101AA2000BF09F0E036EFF0E046E01C005F002C024
:101AB20006F0035005260450062206500AE11A0ECB
:101AC200055CD8A067EF0DF06AEF0DF0010E6BEF29
:101AD2000DF0000E016E026A1200BF0E036EFF0EC1
:101AE200046E01C005F002C006F003500526045042
:101AF200062206500AE11A0E055CD8A083EF0DF00B
:101B020086EF0DF0010E87EF0DF0000E016E026AF6
:101B1200120001C003F002C004F092EF0DF0014A7E
:101B2200022A01C0D9FF02C0DAFFDF50D8A49CEF1D
:101B32000DF09EEF0DF090EF0DF00350015C016E81
:101B420004500258026E1200026EBCEC0DF0C58603
:101B5200BCEC0DF0C9CF03F0BCEC0DF00204D8B41C
:101B6200B5EF0DF0B8EF0DF0C58AB9EF0DF0C59ADB
:101B7200C58803501200C5CF01F01F0E0116D8A46C
:101B8200C5EF0DF0C7EF0DF0BCEF0DF0C7B4CCEF11
:101B92000DF0CEEF0DF0BCEF0DF01200036E8D8252
:101BA20003380F0B17EC0DF003500F0B17EC0DF071
:101BB2001200036E8D9203380F0B17EC0DF00350D9
:101BC2000F0B17EC0DF01200454550524F4D3A00E5
:101BD20066416249614E026EBCEC0DF002C0C9FF63
:101BE2001200BCEC0DF0C5841200BCEC0DF0C580F7
:0C1BF2001200BCEC0DF0C58212001200C5
:020000040020DA
:08000000FFFFFFFFFFFFFFFF00
:020000040030CA
:0E000000000B1F1EFF8381FF0FC00FE00F409B
:00000001FF
