:020000040000FA
:0400000024EF3FF0BA
:107E38003EEC3FF0C58012003EEC3FF0C5841200D6
:107E4800086A076A000169EF3FF0026E3EEC3FF0F6
:107E580002C0C9FF1200720ED36E0F0EC16E93805E
:107E68009382800EC76E280EC66E000EC56E130E66
:107E7800C86E1200C5CF01F01F0E0116D8A447EF37
:107E88003FF049EF3FF03EEF3FF0C7B44EEF3FF011
:107E980050EF3FF03EEF3FF01200066E1CEC3FF053
:107EA800065029EC3FF0035029EC3FF020EC3FF05E
:107EB800020E056E040E046EBA0EE82EFED7042ECE
:107EC800FCD7052EFAD700D012002FEC3FF0000E99
:107ED800036E4E0E51EC3FF0040E036E4E0E51EC45
:107EE8003FF0000E036E4E0E51EC3FF0240E036E71
:107EF8004E0E51EC3FF0200E036E4E0E51EC3FF04B
:107F0800040E036E4E0E51EC3FF0000E036E4E0E43
:107F180051EC3FF0640E036E4E0E51EC3FF0600ED4
:107F2800036E4E0E51EC3FF0040E036E4E0E51ECF4
:107F38003FF0000E036E4E0E51EC3FF0F40E036E50
:107F48004E0E51EC3FF0F00E036E4E0E51EC3FF02A
:107F5800240E036E4E0E51EC3FF0200E036E4E0EB3
:107F680051EC3FF0840E036E4E0E51EC3FF0800E44
:107F7800036E4E0E51EC3FF0040E036E4E0E51ECA4
:107F88003FF0000E036E4E0E51EC3FF0140E036EE0
:107F98004E0E51EC3FF0100E036E4E0E51EC3FF0BA
:107FA800450E036E4E0E51EC3FF0410E036E4E0E21
:107FB80051EC3FF0650E036E4E0E51EC3FF0610E32
:107FC800036E4E0E51EC3FF0040E036E4E0E51EC54
:107FD8003FF0000E036E4E0E51EC3FF0E40E036EC0
:107FE8004E0E51EC3FF0E00E036E4E0E51EC3FF09A
:087FF800FCEF3FF000EF00F088
:020000040020DA
:08000000FFFFFFFFFFFFFFFF00
:020000040030CA
:0E000000000B1F1EFF8381FF0FC00FE00F409B
:00000001FF
