:020000040000FA
:0400000007EF00F016
:10000800048209ED00F095EF00F006009EA60FEFC0
:1000180000F011EF00F05EEF00F0C698C6BC17EFD5
:1000280000F019EF00F020EF00F0C6AE1EEF00F070
:1000380020EF00F025EF00F0C9CF02F0C69CC69E65
:10004800C688C7AA2AEF00F02CEF00F033EF00F0C3
:10005800C7B431EF00F033EF00F042EF00F0C9CF42
:1000680002F0C7B03AEF00F03CEF00F035EF00F0D7
:10007800C9CF01F0C688C6965DEF00F0C7AA47EF62
:1000880000F049EF00F050EF00F0C7A44EEF00F089
:1000980050EF00F05DEF00F0C9CF02F0C79082CFBB
:1000A800C9FFC688C7B05BEF00F05DEF00F056EF00
:1000B80000F09E96049211007EEC00F001C003F05F
:1000C8000304D8A46AEF00F06CEF00F070EF00F0C2
:1000D800800E8C6E62EF00F00350D8A476EF00F02B
:1000E80078EF00F062EF00F0000E8C6E62EF00F027
:1000F80007EF00F0720ED36E0F0EC16E000E956EF4
:10010800000E8C6E93809382800EC76E300EC86E80
:10011800360EC66E010EC56EF28EF28C9D869E96C8
:100128001200026A016A04900492000160EF00F074
:020000040020DA
:08000000FFFFFFFFFFFFFFFF00
:020000040030CA
:0E000000000B1F1EFF8381FF0FC00FE00F409B
:00000001FF
