:020000040000FA
:04000000EAEF38F0FB
:1071B00006EC39F0C582120006EC39F0C5801200E9
:1071C00006EC39F0C5841200026E06EC39F002C0FC
:1071D000C9FF120000EE43F00B0EEE6AE806FDE177
:1071E00000019FEF3BF009500B02F3CF0DF0F4CFFD
:1071F0000EF009500C02F3500E260A500B02F35009
:107200000E260DC009F00EC00AF01200C5CF01F025
:107210001F0E0116D8A40FEF39F011EF39F006EF69
:1072200039F0C7B416EF39F018EF39F006EF39F03E
:107230001200026E06EC39F0C58606EC39F0C9CFB3
:1072400003F006EC39F00204D8B429EF39F02CEF42
:1072500039F0C58A2DEF39F0C59AC58806EC39F0AA
:1072600003501200076EDCEC38F00750E4EC38F005
:107270000350E4EC38F00450E4EC38F0E0EC38F083
:10728000030E066E8A0E056E560EE82EFED7052EEC
:10729000FCD7062EFAD7120011500F5C096E12505F
:1072A00010580A6E1150135C036E12501458046E7D
:1072B0001550175C016E16501858026E38EC3AF0F3
:1072C00001C00BF002C00CF0F3EC38F015500924AB
:1072D0000F6E16500A20106E12000A6EDCEC38F0A9
:1072E0000A50E4EC38F00350E4EC38F0000E486E3D
:1072F000000E476E87EF39F004C0D9FF05C0DAFFF2
:10730000DF50E4EC38F0044A052A474A482A065080
:10731000475C4850800A086E0750800A0858D8A079
:1073200094EF39F096EF39F07CEF39F0E0EC38F07B
:10733000030E096E8A0E086E560EE82EFED7082E32
:10734000FCD7092EFAD712000F0EC16E93809382DC
:10735000000E966E000E8D6E000E956E000E8C6EF9
:10736000800EC76E280EC66E000EC56E310EC86E3A
:10737000000E036E800E046E800E32EC39F0410E6A
:107380003D6EEE0EE82EFED73D2EFCD700D0000E4F
:10739000326E000E336E7A0E346E440E356E49EC4A
:1073A0003DF0000E326E000E336E480E346E420E0B
:1073B000356E49EC3DF0080E3E6E9D0E3D6E060E9C
:1073C000E82EFED73D2EFCD73E2EFAD712000A6ECD
:1073D000DCEC38F00A50E4EC38F00450E4EC38F01F
:1073E000D8EC38F00A500109E4EC38F0000E486E91
:1073F000000E476E1BEF3AF0010E4724086E000E98
:107400004820096E0650081807E107500918D8A44B
:107410000CEF3AF00EEF3AF014EF3AF0010E19ECDF
:1074200039F0056E18EF3AF0000E19EC39F0056EE0
:10743000052A474A482A0650475C4850800A086E89
:107440000750800A0858D8A028EF3AF02AEF3AF0FF
:10745000FCEF39F0E0EC38F0030E096E8A0E086E8E
:10746000560EE82EFED7082EFCD7092EFAD71200AA
:10747000000E066E04BE41EF3AF03FEF3AF047EFE0
:107480003AF0036C041ED8B0042A010E066E02BE48
:107490004EEF3AF04CEF3AF054EF3AF0016C021E26
:1074A000D8B0022A010E061A000E086E000E076EF2
:1074B00003500410D8B45FEF3AF061EF3AF089EF6F
:1074C0003AF0010E056E69EF3AF0D89003360436B3
:1074D000052A04AE6EEF3AF070EF3AF065EF3AF03D
:1074E000D890073608360350015C04500258D8A0E3
:1074F0007CEF3AF07EEF3AF083EF3AF00350015E12
:107500000450025A0780D89004320332052E70EFDF
:107510003AF00650D8B48FEF3AF091EF3AF095EF89
:107520003AF0076C081ED8B0082A07C001F008C05E
:1075300002F01200000E0114096E000E02140A6E11
:10754000800E03140B6E7F0E04140C6E09500A108B
:107550000B100C10D8A4AFEF3AF0B1EF3AF0B9EF3E
:107560003AF0000E016E000E026E000E036E000E69
:10757000046E000E0514096E000E06140A6E800ECD
:1075800007140B6E7F0E08140C6E09500A100B10B6
:107590000C10D8A4CEEF3AF0D0EF3AF0D8EF3AF092
:1075A000000E056E000E066E000E076E000E086ED1
:1075B00004AEDDEF3AF0DFEF3AF0E8EF3AF0016CBD
:1075C000021ED8B0022A031ED8B0032A800E045629
:1075D00008AEEDEF3AF0EFEF3AF0F8EF3AF0056C65
:1075E000061ED8B0062A071ED8B0072A800E0856F5
:1075F000000E011A000E021A000E031A800E041A61
:10760000000E051A000E061A000E071A800E081A40
:107610000550015C065002580750035808500458A2
:10762000D8B015EF3BF017EF3BF01AEF3BF0D890D6
:107630001BEF3BF0D88012002A342B34316E3150CE
:10764000D8A425EF3BF027EF3BF031EF3BF0000EE5
:10765000286E000E296E000E2A6E000E2B6E9EEF15
:107660003BF028C02CF029C02DF02AC02EF02BC0F2
:107670002FF0200E41EF3BF0D8902F322E322D32DA
:107680002C32E82E3CEF3BF02C50306E2A8EFF0E51
:107690002816FF0E2916FF0E2A16000E2B16960E20
:1076A000315E31BE58EF3BF056EF3BF06EEF3BF0F2
:1076B0003150800A970FD8B060EF3BF062EF3BF09B
:1076C00064EF3BF027EF3BF0D8902B322A3229327F
:1076D0002832313E64EF3BF086EF3BF01F0E316401
:1076E00074EF3BF076EF3BF07EEF3BF027EF3BF0A3
:1076F000D890283629362A362B3631063150D8A470
:1077000084EF3BF086EF3BF078EF3BF03050D8B49D
:107710008CEF3BF08EEF3BF096EF3BF02B1E2A1EDA
:10772000291E286C000E29222A222B2228C028F08C
:1077300029C029F02AC02AF02BC02BF01200A4EC9B
:1077400039F0000E4A6E000E4B6E000E426E000EB7
:10775000416E41C043F042C044F0000E106EB40EC2
:107760000F6E000E126E000E116E000E146EB40E2F
:10777000136E000E166E6E0E156E010E186EFE0E56
:10778000176E4CEC39F00FC045F010C046F045C004
:107790004CF046504D6E4350040DF350060F036EEF
:1077A0004A0E046E000E056E000E076E040E066E85
:1077B000800E6DEC39F01A0E406E5E0E3F6E6E0E4E
:1077C000E82EFED73F2EFCD7402EFAD700D0000E71
:1077D000106E000E0F6E000E126E000E116E000E77
:1077E000146EB40E136E000E166E6E0E156E010E34
:1077F000186EFE0E176E4CEC39F00FC045F010C03D
:1078000046F045C04CF046504D6E4350040DF350C9
:10781000060F036E4A0E046E000E056E000E076E14
:10782000040E066E800E6DEC39F01A0E406E5E0E80
:107830003F6E6E0EE82EFED73F2EFCD7402EFAD7B5
:1078400000D0000E106E2D0E0F6E000E126E000E88
:10785000116E000E146EB40E136E000E166E6E0EC8
:10786000156E010E186EFE0E176E4CEC39F00FC03F
:1078700045F010C046F045C04CF046504D6E4350A8
:10788000040DF350060F036E4A0E046E000E056ED3
:10789000000E076E040E066E800E6DEC39F01A0EA7
:1078A000406E5E0E3F6E6E0EE82EFED73F2EFCD76A
:1078B000402EFAD700D0414A422A42BE69EF3CF03E
:1078C000425009E1040E415CD8A069EF3CF06BEF37
:1078D0003CF0A9EF3BF0A1EF3BF000EF00F0096EA8
:1078E0000950D8B476EF3CF078EF3CF09AEF3CF0DA
:1078F00004BE7FEF3CF07DEF3CF09AEF3CF001C01E
:1079000005F002C006F003C007F004C008F0051E31
:10791000061E071E081E052A000E06220722082240
:1079200005C00BF006C00CF007C00DF008C00EF04B
:10793000A2EF3CF001C00BF002C00CF003C00DF050
:1079400004C00EF00150021003100410D8A4ABEFD5
:107950003CF0ADEF3CF0B7EF3CF0000E016E000ED6
:10796000026E000E036E000E046E48EF3DF0960EA0
:107970000A6EC1EF3CF00A2AD8900E320D320C325A
:107980000B32000E0B14056E000E0C14066E000E6A
:107990000D14076EFE0E0E14086E0550061007102B
:1079A0000810D8A4D6EF3CF0D8EF3CF0BBEF3CF089
:1079B000E6EF3CF00A2A010E0B26000E0C220D22E7
:1079C0000E22D8900E320D320C320B32000E0B14F8
:1079D000056E000E0C14066E000E0D14076EFF0EE1
:1079E0000E14086E0550061007100810D8A4FBEFFF
:1079F0003CF0FDEF3CF0DAEF3CF005EF3DF00A061D
:107A0000D8900B360C360D360E360DBE0AEF3DF013
:107A10000CEF3DF014EF3DF0020E0A6012EF3DF066
:107A200014EF3DF0FFEF3CF00AB019EF3DF01BEF13
:107A30003DF01CEF3DF00D9ED8900A320AC005F0D3
:107A4000066A076A086A05C008F0076A066A056AD6
:107A500005500B1206500C1207500D1208500E1252
:107A60000950D8B436EF3DF038EF3DF040EF3DF02F
:107A700004BE3FEF3DF03DEF3DF040EF3DF00E8E98
:107A80000BC001F00CC002F00DC003F00EC004F0FA
:107A9000120032C001F033C002F034C003F035C030
:107AA00004F0000E056E000E066E800E076E3F0E8F
:107AB000086E9AEC3AF0D8B060EF3DF062EF3DF01E
:107AC0006AEF3DF0000E326E000E336E800E346EA3
:107AD0003F0E356E000E016EC00E026E5A0E036E22
:107AE000450E046E32C005F033C006F034C007F016
:107AF00035C008F09AEC3AF0D8B081EF3DF083EF52
:107B00003DF08BEF3DF0000E326EC00E336E5A0E1C
:107B1000346E450E356E780E396EDF0E3A6E8D0E70
:107B20003B6E010E3C6E32C013F033C014F034C013
:107B300015F035C016F039C001F03AC002F03BC074
:107B400003F03CC004F0000E6FEC3CF001C00FF0FD
:107B500002C010F003C011F004C012F033EC3EF08C
:107B60000FC028F010C029F011C02AF012C02BF06D
:107B70001CEC3BF028C039F029C03AF02AC03BF099
:107B80002BC03CF0000E3926080E3A22000E3B2294
:107B9000000E3C220C0E366ED8903C323B323A320C
:107BA0003932362ECCEF3DF03906000E3A5A3B5AA8
:107BB0003C5A3C503B103A1007E1030E395CD8B0F8
:107BC000E4EF3DF0E6EF3DF0EEEF3DF0030E396EF1
:107BD000000E3A6E000E3B6E000E3C6E3C503B10A9
:107BE00008E13A04D8A0F7EF3DF0F9EF3DF001EFDE
:107BF0003EF0FF0E396E000E3A6E000E3B6E000E28
:107C00003C6E39C037F0000E046E000E056E000E9B
:107C1000076E010E066E800EE7EC39F0000E036E63
:107C2000100E046E800E32EC39F0FE0E036E37C07B
:107C300004F0800E32EC39F0000E036E000E046E7C
:107C4000800E32EC39F0210E366E760EE82EFED71D
:107C5000362EFCD700D0000E036EA00E046E800EF0
:107C600032EC39F012001250800B1F6E12501224A9
:107C7000266E11AE3EEF3EF040EF3EF041EF3EF09B
:107C800026802650D8B447EF3EF049EF3EF05EEF35
:107C90003EF02628D8A44FEF3EF051EF3EF059EFCA
:107CA0003EF0000E0F6E000E106E000E116E000EF4
:107CB000126E118E000E126E66EF3EF0000E0F6E09
:107CC000000E106E000E116E000E126E1650800B1C
:107CD0001F1A16501624276E15AE71EF3EF073EF83
:107CE0003EF074EF3EF027802750D8B47AEF3EF094
:107CF0007CEF3EF091EF3EF02728D8A482EF3EF0D3
:107D000084EF3EF08CEF3EF0000E136E000E146E0A
:107D1000000E156E000E166E158E000E166E99EF83
:107D20003EF0000E136E000E146E000E156E000E67
:107D3000166E1350141015101610D8A4A2EF3EF0B2
:107D4000A4EF3EF0BCEF3EF0000E0F6E000E106E82
:107D5000000E116E000E126E800E11127F0E1212A6
:107D60001F5012120FC00FF010C010F011C011F010
:107D700012C012F0FFEF3FF02650D8A4C2EF3EF041
:107D8000C4EF3EF0CEEF3EF0000E0F6E000E106E10
:107D9000000E116E000E126EFFEF3FF0275026C04E
:107DA00017F0186A175E000E185A7F0E1724206EFF
:107DB000000E1820216E0FC01BF010C01CF011C067
:107DC0001DF012C01EF0000E0F6E000E106E000EA1
:107DD000116E000E126E000E226E000E236E000E4B
:107DE000246E000E256E000E276E2FEF3FF02750F9
:107DF000D8B4FDEF3EF0FFEF3EF016EF3FF0D89025
:107E00001B361C361D361E36D8900F3610361136EE
:107E1000123625AE0EEF3FF010EF3FF011EF3FF0BE
:107E20000F80D890223623362436253613501B5C1B
:107E300014501C5815501D5816501E58D8A023EF2A
:107E40003FF025EF3FF02EEF3FF0258C13501B5EE7
:107E500014501C5A15501D5A16501E5A272A190E16
:107E6000276435EF3FF037EF3FF0F7EF3EF01B5060
:107E70001C101D101E10D8B440EF3FF042EF3FF031
:107E80005AEF3FF022805AEF3FF0D8900F3610366D
:107E90001136123625AE4FEF3FF051EF3FF052EF63
:107EA0003FF00F80D8902236233624362536200620
:107EB000D8A0210611AE5FEF3FF061EF3FF045EF34
:107EC0003FF0000E276E25AE68EF3FF06AEF3FF0FF
:107ED0008EEF3FF0FF0E2214176EFF0E2314186E64
:107EE000FF0E2414196E7F0E25141A6E17501810E9
:107EF00019101A10D8B47FEF3FF081EF3FF085EFF3
:107F00003FF0010E276E8EEF3FF00FA08AEF3FF09B
:107F10008CEF3FF08EEF3FF081EF3FF02750D8B469
:107F200094EF3FF096EF3FF0BAEF3FF0010E0F26CF
:107F3000000E10221122122212A0A1EF3FF0A3EF97
:107F40003FF0BAEF3FF00FC017F010C018F011C0AB
:107F500019F012C01AF01A341A32193218321732C4
:107F600017C00FF018C010F019C011F01AC012F0AD
:107F7000204A212A21BEC5EF3FF0215008E12028E8
:107F8000D8A0C5EF3FF0C7EF3FF0D2EF3FF0000EB3
:107F9000216E2068000E0F6E000E106E000E116E26
:107FA000000E126E21BEDFEF3FF0215006E12004EB
:107FB000D8B0DDEF3FF0DFEF3FF0EDEF3FF0000E28
:107FC000216E000E206E000E0F6E000E106E000E61
:107FD000116E000E126E000E1F6E20C026F026A03D
:107FE000F4EF3FF0F6EF3FF0F9EF3FF0118EFAEFCC
:107FF0003FF0119ED8902630126EB0EF3EF0120086
:020000040020DA
:08000000FFFFFFFFFFFFFFFF00
:020000040030CA
:0E000000000C1F1EFF8381FF0FC00FE00F409A
:00000001FF
