:020000040000FA
:0400000092EF3FF04C
:107EC000010044FF7FEC3FF0C58012007FEC3FF0E3
:107ED000C5841200026E7FEC3FF002C0C9FF1200A1
:107EE000720ED36E0F0EC16E93809382800EC76E9A
:107EF000280EC66E000EC56E130EC86E1200C5CFDA
:107F000001F01F0E0116D8A488EF3FF08AEF3FF072
:107F10007FEF3FF0C7B48FEF3FF091EF3FF07FEF7F
:107F20003FF01200C00EF66E7E0EF76E000EF86E79
:107F300000EE18F010EE04F00900F5CFEEFFE5506A
:107F4000E150FAE100EE0DF00B0EEE6AE806FDE1FD
:107F50000001ABEF3FF070EC3FF00B0E0C6E260E05
:107F60000B6E5E0EE82EFED70B2EFCD70C2EFAD72A
:107F7000B50E036E180E046E000E056E000E076E31
:107F8000040E066E300EC9EC3FF0ADEF3FF000EF8F
:107F900000F00A6E62EC3FF00A506AEC3FF00350CA
:107FA0006AEC3FF0000E176E000E166EE3EF3FF026
:107FB00004C0D9FF05C0DAFFDF506AEC3FF0044A85
:107FC000052A164A172A0650165C1750800A086EB2
:107FD0000750800A0858D8A0F0EF3FF0F2EF3FF0CA
:107FE000D8EF3FF066EC3FF00B0E096E260E086EE0
:107FF0005E0EE82EFED7082EFCD7092EFAD7120007
:020000040020DA
:08000000FFFFFFFFFFFFFFFF00
:020000040030CA
:0E000000000B1F1EFF8381FF0FC00FE00F409B
:00000001FF
