:020000040000FA
:040000006EEF1CF093
:1008000000252E3466205600494E46004E414E00CB
:10081000696E66006E616E006C660000000E00017D
:100820007B6F000E7A6F36C08CF037C08DF038C009
:100830008EF039C08FF08FBF22EF04F020EF04F06C
:1008400038EF04F0000E7B6F010E7A6F8CC001F060
:100850008DC002F08EC003F08FC004F004EC1CF0D9
:1008600001C08CF002C08DF003C08EF004C08FF088
:10087000000E0001936F000E926FC0C07FF0C1C0E8
:1008800080F07A517B11D8A448EF04F04AEF04F0CD
:1008900051EF04F05EA44FEF04F051EF04F06BEF62
:1008A00004F07A517B11D8A458EF04F05AEF04F009
:1008B00060EF04F0000E656F2B0E646F64EF04F0C0
:1008C000000E656F2D0E646F64C000F1924B932B88
:1008D0007F07D8A080078CC001F08DC002F08EC0C9
:1008E00003F08FC004F08CEC16F001040210D8A4C1
:1008F0007CEF04F07EEF04F0D5EF04F0BF0E3B6E0A
:10090000FF0E3C6E3A503D6E3E6A3B503D263C50D9
:100910003E223E500AE11A0E3D5CD8A092EF04F050
:1009200095EF04F0010E96EF04F0000E0001666FE3
:10093000676B66516711D8B4A0EF04F0A2EF04F022
:10094000B0EF04F0000E9225016E010E9321026EAD
:10095000080E036E080E046E38EC1AF0BCEF04F0BB
:10096000000E9225016E010E9321026E100E036E91
:10097000080E046E38EC1AF00001FD0E7F27FF0E02
:10098000802334C011F035C012F0000E136E010E3A
:10099000146E7FC015F080C016F03DEC18F011C049
:1009A00034F012C035F0E6EF09F08CC001F08DC0D4
:1009B00002F08EC003F08FC004F08CEC16F00150F2
:1009C0000210D8A4E6EF04F0E8EF04F028EF05F0F9
:1009D000BF0E3B6EFF0E3C6E3A503D6E3E6A3B5082
:1009E0003D263C503E223E500AE11A0E3D5CD8A006
:1009F000FCEF04F0FFEF04F0010E00EF05F0000E35
:100A00000001686F696B68516911D8B40AEF05F08D
:100A10000CEF05F01AEF05F0000E9225016E010EA5
:100A20009321026E0C0E036E080E046E38EC1AF061
:100A3000BCEF04F0000E9225016E010E9321026EB0
:100A4000140E036E080E046E38EC1AF0BCEF04F0BE
:100A5000000E0001946F000E956F800E966F3F0E92
:100A6000976F000E916F000E906F8CC001F08DC0DB
:100A700002F08EC003F08FC004F0000E056E000E71
:100A8000066E000E076E000E086E52EC19F0D8B01C
:100A90004CEF05F04EEF05F0D1EF05F06DEF05F0EE
:100AA00094C00FF095C010F096C011F097C012F0EE
:100AB000000E136E000E146E200E156E410E166E93
:100AC00077EC0EF00FC094F010C095F011C096F0C6
:100AD00012C097F00001904B912B8CC028F08DC074
:100AE00029F08EC02AF08FC02BF0000E136E000E7E
:100AF000146E200E156E410E166E94C00FF095C048
:100B000010F096C011F097C012F077EC0EF00FC005
:100B10002CF010C02DF011C02EF012C02FF00AECF6
:100B200016F0D8B096EF05F098EF05F050EF05F00D
:100B3000B8EF05F094C001F095C002F096C003F044
:100B400097C004F0000E056E000E066E200E076EB4
:100B5000410E086E8CEC10F001C094F002C095F0CC
:100B600003C096F004C097F000019007D8A0910749
:100B70008CC028F08DC029F08EC02AF08FC02BF0D9
:100B800094C02CF095C02DF096C02EF097C02FF099
:100B90000AEC16F0D8A0CFEF05F0D1EF05F09AEFF0
:100BA00005F03AC007F0086AD8EC19F007500001C8
:100BB000816F81C07EF0670E8119D8A4E2EF05F045
:100BC000E4EF05F00AEF06F0C251C311D8A4EBEF31
:100BD00005F0EDEF05F0F1EF05F0000EC36F010E2B
:100BE000C26FC3BFFEEF05F0C35106E1C205D8B026
:100BF000FCEF05F0FEEF05F004EF06F0000E7D6F50
:100C0000060E7C6F13EF06F0C2C07CF0C3C07DF00F
:100C100013EF06F0C3BF0FEF06F011EF06F0FEEF83
:100C200005F004EF06F0670E8119D8A41AEF06F05C
:100C30001CEF06F04BEF06F091AF2AEF06F0FC0E2A
:100C4000905DFF0E9159D8A028EF06F02AEF06F02C
:100C500049EF06F0FF0E3B6EFF0E3C6E7CC03DF090
:100C60007DC03EF03B503D263C503E2290513D5CC5
:100C70003E50800A3F6E9151800A3F58D8A043EF02
:100C800006F045EF06F049EF06F0660E7E6F4BEF7B
:100C900006F0650E7E6F7CC074F07DC075F0670E47
:100CA0008119D8A456EF06F058EF06F068EF06F069
:100CB000660E7E19D8A45FEF06F061EF06F06AEFCA
:100CC00006F091BF68EF06F066EF06F06AEF06F0F7
:100CD000744B752B660E7E19D8A471EF06F073EF76
:100CE00006F093EF06F091BF7AEF06F078EF06F08A
:100CF00086EF06F0000E946F000E956F800E966FD3
:100D00003F0E976F000E916F000E906F670E811966
:100D1000D8B48DEF06F08FEF06F093EF06F0905108
:100D2000742791517523000E8B6F000E8A6F8CC053
:100D300082F08DC083F08EC084F08FC085F094C0A7
:100D400060F095C061F096C062F097C063F024EF48
:100D500007F082C001F083C002F084C003F085C0B8
:100D600004F094C005F095C006F096C007F097C057
:100D700008F08CEC10F001C01AF002C01BF003C0A8
:100D80001CF004C01DF059EC12F01AC086F01BC014
:100D900087F01CC088F01DC089F086C001F087C0B4
:100DA00002F088C003F089C004F087EC15F001C0A0
:100DB00078F002C079F082C02AF083C02BF084C0A2
:100DC0002CF085C02DF094C013F095C014F096C09F
:100DD00015F097C016F086C00FF087C010F088C0DD
:100DE00011F089C012F077EC0EF00FC02EF010C099
:100DF0002FF011C030F012C031F086EC1BF02AC089
:100E000082F02BC083F02CC084F02DC085F094C0FC
:100E100001F095C002F096C003F097C004F0000EF8
:100E2000056E000E066E200E076E410E086E8CECED
:100E300010F001C094F002C095F003C096F004C019
:100E400097F000018A4B8B2B74518A5D8B51800A7D
:100E50003B6E7551800A3B58D8A031EF07F033EF55
:100E600007F0A9EF06F094C00FF095C010F096C0FF
:100E700011F097C012F0000E136E000E146EA00E4B
:100E8000156E400E166E77EC0EF00FC086F010C097
:100E900087F011C088F012C089F082C028F083C0AA
:100EA00029F084C02AF085C02BF086C02CF087C0C2
:100EB0002DF088C02EF089C02FF00AEC16F0D8B0C3
:100EC00064EF07F066EF07F071EF07F0000E000126
:100ED000866F000E876F000E886F000E896F9AEF85
:100EE00007F082C001F083C002F084C003F085C027
:100EF00004F086C005F087C006F088C007F089C0FE
:100F000008F052EC19F0D8A088EF07F08AEF07F04C
:100F10009AEF07F0000178B190EF07F092EF07F039
:100F20009AEF07F0000E866F000E876F000E886F35
:100F3000000E896F8CC01AF08DC01BF08EC01CF0A3
:100F40008FC01DF086C01EF087C01FF088C020F043
:100F500089C021F0E7EC09F01AC082F01BC083F0D1
:100F60001CC084F01DC085F060C094F061C095F095
:100F700062C096F063C097F0650E00017E19D8B488
:100F8000C4EF07F0C6EF07F0CCEF07F090C076F0A3
:100F900091C077F0D0EF07F0000E776F000E766FFC
:100FA000000E736F000E726F000E716F000E706F87
:100FB000000E8B6F000E8A6FCCEF08F082C001F03C
:100FC00083C002F084C003F085C004F094C005F033
:100FD00095C006F096C007F097C008F08CEC10F0B2
:100FE00001C01AF002C01BF003C01CF004C01DF0C9
:100FF00059EC12F01AC086F01BC087F01CC088F0B4
:101000001DC089F086C001F087C002F088C003F0DF
:1010100089C004F087EC15F001C078F002C079F0C7
:101020005EB815EF08F017EF08F035EF08F0000193
:1010300078517911D8A41FEF08F021EF08F035EFAF
:1010400008F0670E8119D8A428EF08F02AEF08F0FD
:1010500035EF08F077BF31EF08F02FEF08F035EFEC
:1010600008F0704B712B80EF08F000017251731182
:10107000D8A43DEF08F03FEF08F069EF08F077BF24
:1010800046EF08F044EF08F069EF08F0000E9225F3
:10109000D96E010E9321DA6E2E0EDF6E924B932BDA
:1010A0007F07D8A08007000E736F010E726F69EF83
:1010B00008F0000E9225D96E010E9321DA6E300EE3
:1010C000DF6E924B932B7F07D8A080077007D8A0C4
:1010D000710770517111D8A470EF08F072EF08F029
:1010E00059EF08F0000E9225D96E010E9321DA6EA9
:1010F0007851300FDF6E924B932B7F07D8A080077B
:1011000082C02AF083C02BF084C02CF085C02DF063
:1011100094C013F095C014F096C015F097C016F067
:1011200086C00FF087C010F088C011F089C012F09F
:1011300077EC0EF00FC02EF010C02FF011C030F081
:1011400012C031F086EC1BF02AC082F02BC083F075
:101150002CC084F02DC085F094C001F095C002F041
:1011600096C003F097C004F0000E056E000E066EE8
:10117000200E076E410E086E8CEC10F001C094F04A
:1011800002C095F003C096F004C097F00001760706
:10119000D8A077078A4B8B2B74518A5D8B51800ABC
:1011A0003B6E7551800A3B58D8B0D9EF08F0DBEFA1
:1011B00008F0E9EF08F093BFE7EF08F0935109E179
:1011C0004B0E925DD8A0E7EF08F0E9EF08F0DEEFF4
:1011D00007F072517311D8A4F0EF08F0F2EF08F0A5
:1011E00003EF09F05EA8F7EF08F0F9EF08F003EF5E
:1011F00009F0000E9225D96E010E9321DA6E2E0EA3
:10120000DF6E924B932B000E9225D96E010E932127
:10121000DA6E000EDF6E650E7E19D8A412EF09F0AB
:1012200014EF09F0C1EF04F0000E8B6F4F0E8A6FC0
:10123000000E8A25D96E010E8B21DA6E000EDF6E4C
:10124000000E7B6F000E7A6F91BF2BEF09F029EF34
:1012500009F033EF09F0000E7B6F010E7A6F906D8D
:10126000911FD8B0912B000E7D6F020E7C6F64EF42
:1012700009F08A07D8A08B07000E8A25D96E010EC7
:101280008B21DA6E90C001F091C002F0000E046E66
:101290000A0E036EFAEC18F00150300FDF6E90C0AA
:1012A00001F091C002F0000E046E0A0E036EDBEC3A
:1012B00017F001C090F002C091F000017C07D8A0A7
:1012C0007D077F07D8A0800790519111D8A46BEFBC
:1012D00009F06DEF09F039EF09F07DBF7AEF09F001
:1012E0007D5106E17C05D8B078EF09F07AEF09F07E
:1012F00039EF09F08A07D8A08B077A517B11D8A45F
:1013000084EF09F086EF09F08CEF09F0000E6B6FA7
:101310002B0E6A6F90EF09F0000E6B6F2D0E6A6F47
:10132000000E8A25D96E010E8B21DA6E6AC0DFFFAE
:101330007F07D8A080078A07D8A08B07BF0E3B6E17
:10134000FF0E3C6E3A503D6E3E6A3B503D263C508F
:101350003E223E500AE11A0E3D5CD8A0B2EF09F0E1
:10136000B5EF09F0010EB6EF09F0000E6E6F6F6B6E
:101370006E516F11D8A4BFEF09F0C1EF09F0C7EFAC
:1013800009F0000E6D6F650E6C6FCBEF09F0000E6B
:101390006D6F450E6C6F000E8A25D96E010E8B2184
:1013A000DA6E6CC0DFFF7F07D8A08007000E9225A1
:1013B000016E010E9321026E000E8A25036E010E4E
:1013C0008B21046E38EC1AF0C1EF04F012001D50AE
:1013D000800B266E1D501D24286E1CAEF2EF09F006
:1013E000F4EF09F0F5EF09F028802850D8B4FBEFAE
:1013F00009F0FDEF09F012EF0AF02828D8A403EF56
:101400000AF005EF0AF00DEF0AF0000E1A6E000E5A
:101410001B6E000E1C6E000E1D6E1C8E000E1D6ECF
:101420001AEF0AF0000E1A6E000E1B6E000E1C6EF4
:10143000000E1D6E2150800B276E26502718D8B441
:1014400024EF0AF026EF0AF027EF0AF0268C21504D
:101450002124276E20AE2FEF0AF031EF0AF032EF91
:101460000AF027802750D8B438EF0AF03AEF0AF094
:101470004FEF0AF02728D8A440EF0AF042EF0AF015
:101480004AEF0AF0000E1E6E000E1F6E000E206E58
:10149000000E216E208E000E216E57EF0AF0000E16
:1014A0001E6E000E1F6E000E206E000E216E285064
:1014B000275CD8B05EEF0AF060EF0AF087EF0AF021
:1014C00026AC65EF0AF067EF0AF069EF0AF0800ECC
:1014D000261A28C029F027C028F029C027F01AC0F2
:1014E00029F01EC01AF029C01EF01BC029F01FC031
:1014F0001BF029C01FF01CC029F020C01CF029C01F
:1015000020F01DC029F021C01DF029C021F0000EDF
:10151000296E285027C022F0236A225E000E235A2B
:1015200023BE9CEF0AF0235009E11A0E225CD8A0DA
:101530009CEF0AF09EEF0AF0D5EF0AF01A501B104C
:101540001C101D10D8A4A7EF0AF0AAEF0AF0010E94
:10155000ABEF0AF0000E296E000E1A6E000E1B6E25
:10156000000E1C6E000E1D6E27C028F0DEEF0AF084
:1015700029A0BDEF0AF0BFEF0AF0C5EF0AF0D8903E
:1015800029300109296EC7EF0AF0D89029321AA034
:10159000CCEF0AF0CEEF0AF0CFEF0AF0298E1D341F
:1015A0001D321C321B321A32282A2750285CD8A040
:1015B000DCEF0AF0DEEF0AF0B8EF0AF026BCE3EF4A
:1015C0000AF0E5EF0AF025EF0BF02850D8A4EBEF76
:1015D0000AF0EDEF0AF0F7EF0AF0000E1A6E000EB7
:1015E0001B6E000E1C6E000E1D6E46EF0CF01E50A2
:1015F0001A261F501B2220501C2221501D221DA0E4
:1016000004EF0BF006EF0BF0B2EF0BF029A00BEF9D
:101610000BF00DEF0BF013EF0BF0D8902930010910
:10162000296E15EF0BF0D89029321AA01AEF0BF0A3
:101630001CEF0BF01DEF0BF0298E1D341D321C32F8
:101640001B321A32282AB2EF0BF01E501A5C1F50C0
:101650001B5820501C581D50800A226E2150800AB1
:101660002258D8B036EF0BF038EF0BF063EF0BF0E9
:101670001A501E5C226E1B501F58236E1C5020589F
:10168000246E1D502158256EFF0E22241A6EFF0E67
:1016900023201B6EFF0E24201C6EFF0E25201D6EC6
:1016A000800E261A296C2950D8A459EF0BF05BEF55
:1016B0000BF06BEF0BF0010E1A26000E1B221C2202
:1016C0001D226BEF0BF01E501A5E1F501B5A20504C
:1016D0001C5A21501D5A1A501B101C101D10D8A442
:1016E00074EF0BF076EF0BF0ABEF0BF02950D8A4B2
:1016F0007CEF0BF07EEF0BF0ABEF0BF0000E1A6EF1
:10170000000E1B6E000E1C6E000E1D6E46EF0CF0E0
:10171000D8901A361B361C361D3629AE92EF0BF0C8
:1017200094EF0BF095EF0BF01A8029A09AEF0BF0D5
:101730009CEF0BF0A0EF0BF0D8802936A2EF0BF056
:10174000D89029362850D8B4A8EF0BF0AAEF0BF0A8
:10175000ABEF0BF028061CAEB0EF0BF0B2EF0BF0C6
:1017600088EF0BF0000E276E29AEB9EF0BF0BBEF40
:101770000BF0D3EF0BF029C022F07F0E2216D8B465
:10178000C4EF0BF0C6EF0BF0CAEF0BF0010E276EA3
:10179000D3EF0BF01AA0CFEF0BF0D1EF0BF0D3EF9C
:1017A0000BF0C6EF0BF02750D8B4D9EF0BF0DBEFFE
:1017B0000BF006EF0CF0010E1A26000E1B221C2265
:1017C0001D221DA0E6EF0BF0E8EF0BF006EF0CF08A
:1017D0001AC022F01BC023F01CC024F01DC025F04D
:1017E0002534253224322332223222C01AF023C07B
:1017F0001BF024C01CF025C01DF02828D8B403EF2E
:101800000CF005EF0CF006EF0CF0282A2828D8B4CD
:101810000CEF0CF00EEF0CF016EF0CF02850D8A4E3
:1018200014EF0CF016EF0CF028EF0CF0000E1A6E0F
:10183000000E1B6E000E1C6E000E1D6E2850D8A4EC
:1018400024EF0CF026EF0CF028EF0CF0000E266EC3
:1018500028A02DEF0CF02FEF0CF032EF0CF01C8EC7
:1018600033EF0CF01C9ED89028301D6E26AE3BEF57
:101870000CF03DEF0CF03EEF0CF01D8E1AC01AF08C
:101880001BC01BF01CC01CF01DC01DF0120042C08C
:10189000D9FF43C0DAFFDECFF6FFDDCFF7FF080048
:1018A000F550250AD8A457EF0CF059EF0CF05BEF78
:1018B0000EF042C0D9FF43C0DAFFDE2A000EDD225F
:1018C000000E0001C16F000EC06FC0C05EF0C1C04D
:1018D0005FF0C269C36942C0D9FF43C0DAFFDECFFF
:1018E000F6FFDDCFF7FF0800F5502E0AD8A47BEFF6
:1018F0000CF07DEF0CF0FAEF0CF0000EC36F000E51
:10190000C26F42C0D9FF43C0DAFFDE2A000EDD22DB
:1019100042C0D9FF43C0DAFFDECFF6FFDDCFF7FFCD
:101920000800F5502A0AD8A498EF0CF09AEF0CF0B2
:10193000B7EF0CF042C0D9FF43C0DAFFDE2A000E39
:10194000DD2244C0D9FF45C0DAFFDFCF46F0020EEA
:10195000DE26DFCF47F0000EDD2246C0D9FF47C0AC
:10196000DAFFDECFC2F0DDCFC3F0FAEF0CF042C0F9
:10197000D9FF43C0DAFFDECF08F0DDCF09F03CEC41
:1019800014F008C0C2F009C0C3F0CEEF0CF042C0A2
:10199000D9FF43C0DAFFDE2A000EDD22D00E466EEC
:1019A000FF0E476E42C0D9FF43C0DAFFDECFF6FF1D
:1019B000DDCFF7FF0800F550486E496A46504826CB
:1019C0004750492249500AE10A0E485CD8A0EBEF83
:1019D0000CF0EEEF0CF0010EEFEF0CF0000E4A6E83
:1019E0004B6A4A504B10D8A4F8EF0CF0FAEF0CF009
:1019F000C7EF0CF042C0D9FF43C0DAFFDECFF6FFDD
:101A0000DDCFF7FF0800F550076E086AD8EC19F033
:101A10000750526E5250D8B410EF0DF012EF0DF087
:101A20004AEF0DF042C0D9FF43C0DAFFDECF46F0E7
:101A3000DDCF47F0010E4626000E472246C0F6FFD6
:101A400047C0F7FF0800F550076E086AD8EC19F098
:101A50000750536E5350D8B430EF0DF032EF0DF005
:101A60004AEF0DF042C0D9FF43C0DAFFDECF46F0A7
:101A7000DDCF47F0020E4626000E472246C0F6FF95
:101A800047C0F7FF0800F550076E086AD8EC19F058
:101A90000750546E660E5218D8A451EF0DF053EF54
:101AA0000DF093EF0DF042C0D9FF43C0DAFFDECF57
:101AB000F6FFDDCFF7FF0800F5CF55F042C0D9FFA4
:101AC00043C0DAFFDE2A000EDD2244C0D9FF45C044
:101AD000DAFFDFCF46F0040EDE26DFCF47F0000E40
:101AE000DD2246C0D9FF47C0DAFFDECF4EF0DECFA1
:101AF0004FF0DECF50F0DECF51F040C034F041C0A7
:101B000035F04EC036F04FC037F050C038F051C0FD
:101B100039F055C03AF00EEC04F034C040F035C056
:101B200041F076EF0EF0520E016E000E026E180EAE
:101B3000036E080E046E000E066E020E056E0BECB0
:101B400017F001500210D8A4A8EF0DF0AAEF0DF085
:101B500025EF0EF042C0D9FF43C0DAFFDECF46F0DA
:101B6000DDCF47F0010E4626000E472246C0F6FFA5
:101B700047C0F7FF0800F5CF55F0BF0E466EFF0EC9
:101B8000476E42C0D9FF43C0DAFFDECFF6FFDDCF9C
:101B9000F7FF0800F550486E496A465048264750FE
:101BA000492249500AE11A0E485CD8A0DAEF0DF03C
:101BB000DDEF0DF0010EDEEF0DF0000E4C6E4D6A04
:101BC0004C504D10D8B4E7EF0DF0E9EF0DF003EFF6
:101BD0000EF044C0D9FF45C0DAFFDFCF46F0040E57
:101BE000DE26DFCF47F0000EDD2246C0D9FF47C01A
:101BF000DAFFDECF4EF0DECF4FF0DECF50F0DECF9B
:101C000051F01BEF0EF044C0D9FF45C0DAFFDFCF23
:101C100046F0040EDE26DFCF47F0000EDD2246C080
:101C2000D9FF47C0DAFFDECF4EF0DECF4FF0DECF78
:101C300050F0DECF51F0020E42C0D9FF43C0DAFFB0
:101C4000DE26000EDD227DEF0DF042C0D9FF43C03D
:101C5000DAFFDECFF6FFDDCFF7FF0800F550250AEB
:101C6000D8A435EF0EF037EF0EF04EEF0EF042C075
:101C7000D9FF43C0DAFFDE2A000EDD22000E026E1D
:101C8000250E016E40C003F041C004F076EC17F061
:101C9000000E416E010E406E76EF0EF042C0D9FF8D
:101CA00043C0DAFFDE2A000EDD22000E416E000E78
:101CB000406E76EF0EF042C0D9FF43C0DAFFDECFB0
:101CC000F6FFDDCFF7FF0800F550016E026A40C055
:101CD00003F041C004F076EC17F042C0D9FF43C0D6
:101CE000DAFFDE2A000EDD2248EF0EF0120012505D
:101CF000800B1B6E12501224216E11AE82EF0EF07B
:101D000084EF0EF085EF0EF021802150D8B48BEFD8
:101D10000EF08DEF0EF0A0EF0EF02128D8A493EF77
:101D20000EF095EF0EF09DEF0EF0000E0F6E000E10
:101D3000106E000E116E000E126E118EA8EF0EF0D6
:101D4000000E0F6E000E106E000E116E000E126E61
:101D50001650800B1B1A16501624206E15AEB3EFCA
:101D60000EF0B5EF0EF0B6EF0EF020802050D8B494
:101D7000BCEF0EF0BEEF0EF0D1EF0EF02028D8A48D
:101D8000C4EF0EF0C6EF0EF0CEEF0EF0000E136EA5
:101D9000000E146E000E156E000E166E158ED9EF25
:101DA0000EF0000E136E000E146E000E156E000E77
:101DB000166E2050D8B4DFEF0EF0E1EF0EF0E9EF31
:101DC0000EF02150D8A4E7EF0EF0E9EF0EF0F3EF9C
:101DD0000EF0000E0F6E000E106E000E116E000E53
:101DE000126E8BEF10F015500F02F3CF26F0F4CFE8
:101DF00027F026501C6E1D6A1E6A1F6A2750226E2D
:101E0000236A246A256A14501002F3CF26F0F4CF17
:101E100027F026501C26000E1D221E221F222750AE
:101E20002226000E23222422252213501102F3CF52
:101E300026F0F4CF27F026501C26000E1D221E226D
:101E40001F2227502226000E2322242225221EC0D4
:101E50001FF01DC01EF01CC01DF01C6A13501002A4
:101E6000F3CF26F0F4CF27F026501C2627501D2252
:101E7000000E1E22000E1F2214500F02F3CF26F078
:101E8000F4CF27F026501C2627501D22000E1E22BC
:101E9000000E1F221EC01FF01DC01EF01CC01DF032
:101EA0001C6A13500F02F3CF26F0F4CF27F0265010
:101EB0001C2627501D22000E1E22000E1F22155028
:101EC0001002F3CF26F0F4CF27F026502226275019
:101ED0002322000E2422000E252214501102F3CFDB
:101EE00026F0F4CF27F02650222627502322000E7A
:101EF0002422000E252215501102F3CF26F0F4CF34
:101F000027F02650176E2750186E196A1A6A19C0E2
:101F10001AF018C019F017C018F0176A17502226C7
:101F200018502322195024221A5025221CC017F0C1
:101F30001DC018F01EC019F01FC01AF0190EA6EF30
:101F40000FF0D8901A32193218321732E82EA1EF5A
:101F50000FF01750222618502322195024221A500D
:101F600025221EC01FF01DC01EF01CC01DF01C6AE3
:101F7000205021C017F0186A1726000E1822820E72
:101F80001724266EFF0E1820276EDCEF0FF0D89076
:101F900022362336243625361FAED1EF0FF0D3EF8D
:101FA0000FF0D4EF0FF02280D8901C361D361E366D
:101FB0001F362606D8A0270624AEE1EF0FF0E3EF88
:101FC0000FF0C7EF0FF0000E206E1FAEEAEF0FF01C
:101FD000ECEF0FF010EF10F0FF0E1C14176EFF0E59
:101FE0001D14186EFF0E1E14196E7F0E1F141A6E2C
:101FF0001750181019101A10D8B401EF10F003EF91
:1020000010F007EF10F0010E206E10EF10F022A07C
:102010000CEF10F00EEF10F010EF10F003EF10F0D7
:102020002050D8B416EF10F018EF10F03CEF10F07D
:10203000010E2226000E23222422252225A023EF92
:1020400010F025EF10F03CEF10F022C017F023C085
:1020500018F024C019F025C01AF01A341A321932B7
:102060001832173217C022F018C023F019C024F01C
:102070001AC025F0264A272A27BE47EF10F027501E
:1020800008E12628D8A047EF10F049EF10F053EFF1
:1020900010F0000E226E000E236E800E246E7F0E56
:1020A000256E81EF10F027BE60EF10F0275006E19B
:1020B0002604D8B05EEF10F060EF10F06CEF10F077
:1020C000000E226E000E236E000E246E000E256E92
:1020D000000E1B6E81EF10F026C021F0FF0E2216BD
:1020E000FF0E23167F0E2416000E251621A07BEF6F
:1020F00010F07DEF10F07EEF10F0248ED89021309C
:10210000256E1B50251222C00FF023C010F024C0F2
:1021100011F025C012F012000450800B116E045013
:102120000424186E03AE97EF10F099EF10F09AEFB9
:1021300010F018801850D8B4A0EF10F0A2EF10F0F3
:10214000B7EF10F01828D8A4A8EF10F0AAEF10F0FD
:10215000B2EF10F0000E016E000E026E000E036E64
:10216000000E046E038E000E046EBFEF10F0000E22
:10217000016E000E026E000E036E000E046E08501B
:10218000800B111A08500824196E07AECAEF10F020
:10219000CCEF10F0CDEF10F019801950D8B4D3EF78
:1021A00010F0D5EF10F0EAEF10F01928D8A4DBEF0B
:1021B00010F0DDEF10F0E5EF10F0000E056E000EF0
:1021C000066E000E076E000E086E078E000E086E7B
:1021D000F2EF10F0000E056E000E066E000E076E98
:1021E000000E086E0550061007100810D8A4FBEF6B
:1021F00010F0FDEF10F015EF11F0000E016E000E63
:10220000026E000E036E000E046E800E03127F0E2F
:1022100004121150041201C001F002C002F003C008
:1022200003F004C004F058EF12F01850D8A41BEFCC
:1022300011F01DEF11F027EF11F0000E016E000EEE
:10224000026E000E036E000E046E58EF12F019506D
:1022500018C009F00A6A095E000E0A5A7F0E0924A6
:10226000126E000E0A20136E01C00DF002C00EF0B7
:1022700003C00FF004C010F0000E016E000E026EDD
:10228000000E036E000E046E000E146E000E156E2E
:10229000000E166E000E176E000E196E88EF11F00C
:1022A0001950D8B456EF11F058EF11F06FEF11F04C
:1022B000D8900D360E360F361036D89001360236CD
:1022C0000336043617AE67EF11F069EF11F06AEFCD
:1022D00011F00180D8901436153616361736055091
:1022E0000D5C06500E5807500F5808501058D8A0D3
:1022F0007CEF11F07EEF11F087EF11F0178C055095
:102300000D5E06500E5A07500F5A0850105A192ADF
:10231000190E19648EEF11F090EF11F050EF11F0DB
:102320000D500E100F101010D8B499EF11F09BEF54
:1023300011F0B3EF11F01480B3EF11F0D890013623
:1023400002360336043617AEA8EF11F0AAEF11F0EB
:10235000ABEF11F00180D8901436153616361736CB
:102360001206D8A0130603AEB8EF11F0BAEF11F0C1
:102370009EEF11F0000E196E17AEC1EF11F0C3EF12
:1023800011F0E7EF11F0FF0E1414096EFF0E151493
:102390000A6EFF0E16140B6E7F0E17140C6E09508A
:1023A0000A100B100C10D8B4D8EF11F0DAEF11F0BE
:1023B000DEEF11F0010E196EE7EF11F001A0E3EF6F
:1023C00011F0E5EF11F0E7EF11F0DAEF11F019502D
:1023D000D8B4EDEF11F0EFEF11F013EF12F0010EA2
:1023E0000126000E02220322042204A0FAEF11F0BB
:1023F000FCEF11F013EF12F001C009F002C00AF077
:1024000003C00BF004C00CF00C340C320B320A3257
:10241000093209C001F00AC002F00BC003F00CC081
:1024200004F0124A132A13BE1EEF12F0135008E1F3
:102430001228D8A01EEF12F020EF12F02BEF12F0AE
:10244000000E136E1268000E016E000E026E000E7A
:10245000036E000E046E13BE38EF12F0135006E147
:102460001204D8B036EF12F038EF12F046EF12F047
:10247000000E136E000E126E000E016E000E026E44
:10248000000E036E000E046E000E116E12C018F0E6
:1024900018A04DEF12F04FEF12F052EF12F0038E32
:1024A00053EF12F0039ED8901830046E09EF11F02C
:1024B0001200AAC02AF0ABC02BF0ACC02CF0ADC00B
:1024C0002DF01AC02AF01BC02BF01CC02CF01DC030
:1024D0002DF0810E1E6EFF0E1F6E2AC020F02BC045
:1024E00021F02CC022F02DC023F0180E7DEF12F049
:1024F000D8902332223221322032E82E78EF12F0A7
:1025000020501E24286E000E1F20296E29BE92EF37
:1025100012F0295009E1170E285CD8A092EF12F0B2
:1025200094EF12F09EEF12F01AC01AF01BC01BF0CD
:102530001CC01CF01DC01DF061EF13F029BEA3EFFD
:1025400012F0A5EF12F015EF13F028C01EF0FF0EE9
:102550001F6EFF0E206E7F0E216E000E226E1E6615
:10256000B4EF12F0BCEF12F02234223221322032CA
:102570001F321E2EAFEF12F01FC024F020C025F036
:1025800021C026F022C027F024502A141E6E2550A8
:102590002B141F6E26502C14206E27502D14216EE4
:1025A0001E501F1020102110D8A4D9EF12F0DBEF1D
:1025B00012F0DDEF12F094EF12F02AC01EF02BC0E3
:1025C0001FF02CC020F02DC021F0200EEDEF12F0F6
:1025D000D890213220321F321E32E82EE8EF12F05E
:1025E0001E501F1020102110D8B4F9EF12F0FBEF8D
:1025F00012F003EF13F024502A2625502B222650E8
:102600002C2227502D22241C1E6E251C1F6E261CDA
:10261000206E271C216E1E502A161F502B1620508C
:102620002C1621502D1659EF13F02AC01EF02BC086
:102630001FF02CC020F02DC021F0200E25EF13F04C
:10264000D890213220321F321E32E82E20EF13F0B4
:102650001E501F1020102110D8A431EF13F033EFBB
:1026600013F03DEF13F0000E2A6E000E2B6E000EDD
:102670002C6E000E2D6E59EF13F0D8902A341E6E7A
:102680002B341F6E2C34206E2D34216E1E501F10E3
:1026900020102110D8B44FEF13F051EF13F059EF81
:1026A00013F0000E2A6E000E2B6E800E2C6EBF0EE5
:1026B0002D6E2AC01AF02BC01BF02CC01CF02DC0B0
:1026C0001DF01200096E0950D8B469EF13F06BEFDA
:1026D00013F08DEF13F004BE72EF13F070EF13F0F0
:1026E0008DEF13F001C005F002C006F003C007F043
:1026F00004C008F0051E061E071E081E052A000E4F
:1027000006220722082205C00BF006C00CF007C005
:102710000DF008C00EF095EF13F001C00BF002C0F1
:102720000CF003C00DF004C00EF0015002100310B5
:102730000410D8A49EEF13F0A0EF13F0AAEF13F04B
:10274000000E016E000E026E000E036E000E046E8F
:102750003BEF14F0960E0A6EB4EF13F00A2AD890ED
:102760000E320D320C320B32000E0B14056E000EC1
:102770000C14066E000E0D14076EFE0E0E14086E7D
:102780000550061007100810D8A4C9EF13F0CBEFBE
:1027900013F0AEEF13F0D9EF13F00A2A010E0B2657
:1027A000000E0C220D220E22D8900E320D320C3269
:1027B0000B32000E0B14056E000E0C14066E000E8C
:1027C0000D14076EFF0E0E14086E0550061007104C
:1027D0000810D8A4EEEF13F0F0EF13F0CDEF13F0E4
:1027E000F8EF13F00A06D8900B360C360D360E367D
:1027F0000DBEFDEF13F0FFEF13F007EF14F0020E24
:102800000A6005EF14F007EF14F0F2EF13F00AB0CE
:102810000CEF14F00EEF14F00FEF14F00D9ED890A3
:102820000A320AC005F0066A076A086A05C008F09D
:10283000076A066A056A05500B1206500C1207500B
:102840000D1208500E120950D8B429EF14F02BEFD6
:1028500014F033EF14F004BE32EF14F030EF14F044
:1028600033EF14F00E8E0BC001F00CC002F00DC05F
:1028700003F00EC004F01200000E166E000E156E6E
:10288000000E0F6E000E0E6E48EF14F0084A092A73
:10289000010E146E08C0F6FF09C0F7FF0800F550DE
:1028A000200AD8B456EF14F058EF14F075EF14F076
:1028B000F70E0A6EFF0E0B6E08C0F6FF09C0F7FF99
:1028C0000800F5500C6E0D6A0A500C260B500D22B4
:1028D0000D5009E1050E0C5CD8A071EF14F073EFF8
:1028E00014F075EF14F0000E146E14C010F0116A9D
:1028F00010501110D8A47FEF14F081EF14F046EFC0
:1029000014F08BEF14F0000E0F6E010E0E6E084ADD
:10291000092AC0EF14F008C0F6FF09C0F7FF08004D
:10292000F5500A6E0B6A0B50000AD8B49AEF14F0F7
:10293000C0EF14F00A502B0AD8B487EF14F0060A3F
:10294000D8B483EF14F0C0EF14F015C001F016C036
:1029500002F0000E046E0A0E036E81EC1CF008C03B
:10296000F6FF09C0F7FF0800F550015E000E025A9D
:10297000300E0124156E000E0220166E87EF14F043
:10298000D00E0A6EFF0E0B6E08C0F6FF09C0F7FFEF
:102990000800F5500C6E0D6A0A500C260B500D22E3
:1029A0000D500AE10A0E0C5CD8A0D9EF14F0DCEF50
:1029B00014F0010EDDEF14F0000E126E136A1250C7
:1029C0001310D8A4E6EF14F0E8EF14F0A5EF14F01C
:1029D0000E500F10D8A4EFEF14F0F1EF14F0FFEF4A
:1029E00014F015C00AF016C00BF00A1E0B1E0A4A9E
:1029F0000B2A0AC008F00BC009F003EF15F015C050
:102A000008F016C009F0120060EC1BF038EC1BF067
:102A1000BCEC1AF028C0BAF029C0BBF02AC0BCF048
:102A20002BC0BDF092EC1AF028C0B6F029C0B7F068
:102A30002AC0B8F02BC0B9F0000E056E000E066E6D
:102A40007A0E076E440E086EB6C001F0B7C002F0F1
:102A5000B8C003F0B9C004F08CEC10F001C01AF05B
:102A600002C01BF003C01CF004C01DF0BAC01EF071
:102A7000BBC01FF0BCC020F0BDC021F0E7EC09F0E6
:102A80001AC0B2F01BC0B3F01CC0B4F01DC0B5F04A
:102A9000C80E0001986F000E996F010E9A6F080E14
:102AA0009B6FB2C09CF0B3C09DF0B4C09EF0B5C0A7
:102AB0009FF0E6EC1AF0C00EB9EC1CF0000E00011D
:102AC000C56F000EC46F71EF15F0C80EC425D96E26
:102AD000000EC521DA6EDF50C4EC1CF00001C44BBF
:102AE000C52BC80E016E000E026E3CEC1CF00150AE
:102AF0000001C45D0250C559D8A081EF15F083EFE5
:102B000015F065EF15F008EF15F000EF00F0033455
:102B100004340A6E0A50D8A490EF15F092EF15F025
:102B20009CEF15F0000E016E000E026E000E036E9B
:102B3000000E046E09EF16F001C005F002C006F0A9
:102B400003C007F004C008F0200EACEF15F0D890D9
:102B50000832073206320532E82EA7EF15F005508D
:102B6000096E038EFF0E0116FF0E0216FF0E0316EE
:102B7000000E0416960E0A5E0ABEC3EF15F0C1EFF2
:102B800015F0D9EF15F00A50800A970FD8B0CBEFA7
:102B900015F0CDEF15F0CFEF15F092EF15F0D890BE
:102BA00004320332023201320A3ECFEF15F0F1EF68
:102BB00015F01F0E0A64DFEF15F0E1EF15F0E9EFF5
:102BC00015F092EF15F0D890013602360336043630
:102BD0000A060A50D8A4EFEF15F0F1EF15F0E3EF75
:102BE00015F00950D8B4F7EF15F0F9EF15F001EF33
:102BF00016F0041E031E021E016C000E02220322A8
:102C0000042201C001F002C002F003C003F004C0BE
:102C100004F01200000E2814306E000E2914316EDC
:102C2000800E2A14326E7F0E2B14336E305031100A
:102C300032103310D8A41FEF16F021EF16F029EF51
:102C400016F0000E286E000E296E000E2A6E000E81
:102C50002B6E000E2C14306E000E2D14316E800E73
:102C60002E14326E7F0E2F14336E3050311032100E
:102C70003310D8A43EEF16F040EF16F048EF16F0F0
:102C8000000E2C6E000E2D6E000E2E6E000E2F6E9E
:102C90002BAE4DEF16F04FEF16F058EF16F0286CF4
:102CA000291ED8B0292A2A1ED8B02A2A800E2B56CF
:102CB0002FAE5DEF16F05FEF16F068EF16F02C6C9C
:102CC0002D1ED8B02D2A2E1ED8B02E2A800E2F569B
:102CD000000E281A000E291A000E2A1A800E2B1A2E
:102CE000000E2C1A000E2D1A000E2E1A800E2F1A0E
:102CF0002C50285C2D5029582E502A582F502B58D4
:102D0000D8B085EF16F087EF16F08AEF16F0D8905E
:102D10008BEF16F0D8801200AEC00BF0AFC00CF0F5
:102D2000B0C00DF0B1C00EF001C00BF002C00CF04D
:102D300003C00DF004C00EF00BC005F00CC006F08F
:102D40000DC007F00EC008F0180EACEF16F0D890CA
:102D50000832073206320532E82EA7EF16F005508A
:102D6000096E0A6A09500A10D8A4B9EF16F0BBEF31
:102D700016F0DBEF16F0D8900B34056E0C34066EAF
:102D80000D34076E0E34086E05500610071008103B
:102D9000D8A4CDEF16F0CFEF16F0D5EF16F0000E59
:102DA000026E020E016E0AEF17F0000E026E030EA5
:102DB000016E0AEF17F009280A10D8A4E2EF16F006
:102DC000E4EF16F006EF17F00BC005F00CC006F0AC
:102DD0000DC007F00EC008F0090ED8900536063673
:102DE00007360836E82EEDEF16F0055006100710EE
:102DF0000810D8B4FEEF16F001EF17F0010E02EF45
:102E000017F0000E016E026A0AEF17F0000E026E54
:102E1000040E016E120001C008F002C009F003C0E8
:102E20000AF004C00BF00506D8A00606052806E146
:102E30000628D8A41EEF17F020EF17F02DEF17F09B
:102E4000000E026E000E016E75EF17F0084A092A97
:102E50000A4A0B2A0506D8A0060608C0D9FF09C0F1
:102E6000DAFFDF50D8B437EF17F039EF17F064EF1F
:102E700017F00AC0F6FF0BC0F7FF0800F550000975
:102E8000D8B445EF17F047EF17F064EF17F005508F
:102E90000610D8B44EEF17F050EF17F064EF17F0AC
:102EA00008C0D9FF09C0DAFFDF50076E0AC0F6FF7D
:102EB0000BC0F7FF0800F5500718D8B462EF17F001
:102EC00064EF17F026EF17F008C0D9FF09C0DAFF4A
:102ED000DF50076E0AC0F6FF0BC0F7FF0800F55081
:102EE000075C016E026AD8A00206120003500410AB
:102EF000D8B47DEF17F07FEF17F088EF17F003508D
:102F00000410D8A486EF17F088EF17F08DEF17F0B4
:102F10000150E1EC1CF0DAEF17F020EE04F0035062
:102F2000D9260450DA22DE50DE10D8B49AEF17F01A
:102F30009CEF17F0B7EF17F020EE04F00350D926FE
:102F40000450DA2210EE02F00350E1260450E2228F
:102F5000DE50E65CE650800A096EDE50800A0958B1
:102F6000D8B0B5EF17F0B7EF17F0DAEF17F020EEA3
:102F700002F00350D9260450DA22DECF05F0DDCF6F
:102F800006F003C0D9FF04C0DAFFDECF07F0DDCFC3
:102F900008F005500724D96E06500820DA6E01C0EB
:102FA000DFFF20EE02F00350D9260450DA22DE2A99
:102FB000000EDD221200000E066E04BEE4EF17F0D4
:102FC000E2EF17F0EAEF17F0036C041ED8B0042A02
:102FD000010E066E02BEF1EF17F0EFEF17F0F7EFFC
:102FE00017F0016C021ED8B0022A010E061A000E5C
:102FF000086E000E076E03500410D8B402EF18F0EC
:1030000004EF18F02CEF18F0010E056E0CEF18F01D
:10301000D89003360436052A04AE11EF18F013EFEA
:1030200018F008EF18F0D890073608360350015C06
:1030300004500258D8A01FEF18F021EF18F026EF27
:1030400018F00350015E0450025A0780D8900432F1
:103050000332052E13EF18F00650D8B432EF18F0F3
:1030600034EF18F038EF18F0076C081ED8B0082AB3
:1030700007C001F008C002F012005EA042EF18F095
:1030800044EF18F04EEF18F013C00AF014C00BF024
:1030900011C00CF012C00DF0A9EC1BF016BE53EFDE
:1030A00018F055EF18F05BEF18F015C01AF016C0C5
:1030B0001BF05FEF18F0000E1B6E000E1A6E000E74
:1030C000196E000E186E71EF18F0000E026E200ED1
:1030D000016E11C003F012C004F076EC17F0184A2C
:1030E000192A1A50185C1950800A176E1B50800A52
:1030F0001758D8A07EEF18F080EF18F065EF18F0A1
:103100005EB085EF18F087EF18F091EF18F013C05C
:103110000AF014C00BF011C00CF012C00DF0A9ECB5
:103120001BF013C001F014C002F03CEC1CF01A506C
:103130000124116E1B500220126E12000B6ED9EC8E
:103140001CF00B50CFEC1CF00450CFEC1CF0DDEC6D
:103150001CF00B500109CFEC1CF0000E0001C56FF4
:10316000000EC46FDDEF18F0010EC425096E000ECD
:10317000C5210A6E0750091807E108500A18D8A49B
:10318000C4EF18F0C6EF18F0D0EF18F0010E57ECAE
:103190001CF005C0D9FF06C0DAFFDF6ED8EF18F0CB
:1031A000000E57EC1CF005C0D9FF06C0DAFFDF6E39
:1031B000054A062A0001C44BC52B0750C45DC55102
:1031C000800A096E0850800A0958D8A0EAEF18F062
:1031D000ECEF18F0B4EF18F0D5EC1CF00B0E0A6E03
:1031E000260E096E5E0EE82EFED7092EFCD70A2E9B
:1031F000FAD71200000E066E02BE03EF19F001EFBF
:1032000019F009EF19F0016C021ED8B0022A010E64
:10321000066E04BE10EF19F00EEF19F014EF19F05E
:10322000036C041ED8B0042A03500410D8B41BEF5A
:1032300019F01DEF19F041EF19F0010E056E25EFA1
:1032400019F0D89003360436052A04AE2AEF19F097
:103250002CEF19F021EF19F00350015C04500258D3
:10326000D8A035EF19F037EF19F03BEF19F0035004
:10327000015E0450025AD89004320332052E2CEF1E
:1032800019F00650D8B447EF19F049EF19F04DEF97
:1032900019F0016C021ED8B0022A01C001F002C070
:1032A00002F01200000E0114096E000E02140A6EE4
:1032B000800E03140B6E7F0E04140C6E09500A105E
:1032C0000B100C10D8A467EF19F069EF19F071EF2B
:1032D00019F0000E016E000E026E000E036E000E5D
:1032E000046E000E0514096E000E06140A6E800EA0
:1032F00007140B6E7F0E08140C6E09500A100B1089
:103300000C10D8A486EF19F088EF19F090EF19F09F
:10331000000E056E000E066E000E076E000E086EA3
:10332000055001180FE1065002180CE10750031870
:1033300009E108500418D8B4A0EF19F0A2EF19F071
:10334000A5EF19F0D890A6EF19F0D880120058C058
:103350005CF059C05DF0000E0001BF6F000EBE6F43
:10336000C5EF19F056C040F057C041F05C0E426EF8
:10337000000E436E5AC044F05BC045F047EC0CF0C1
:1033800040500001BE274150BF235CC0F6FF5DC026
:10339000F7FF0800F5500009D8A4D1EF19F0D3EFDA
:1033A00019F0B2EF19F0BEC056F0BFC057F01200CE
:1033B000BF0E096EFF0E0A6E07C00BF008C00CF0BE
:1033C00009500B260A500C220C500AE11A0E0B5C15
:1033D000D8A0EDEF19F0F0EF19F0010EF1EF19F0B0
:1033E000000E0D6E0E6A0D500E10D8B4FAEF19F0E3
:1033F000FCEF19F003EF1AF0200E0710076E0850CB
:10340000086E07EF1AF007C007F008C008F01200B6
:10341000020E046E120E056E000E066E000E086E91
:10342000020E076E800E9EEC18F0135012C00EF0C4
:103430000F6A0EC00FF00E6A0E10106E0F50116E54
:1034400010C00EF011C00FF0D8900F320E32D8908D
:103450000F320E32D8900F320E32D8900E360F3611
:10346000D8900E360F360EC00CF00FC00DF01200C3
:1034700003C007F004C008F001C009F002C00AF060
:103480000750056E0850066E074A082A05C0F6FF69
:1034900006C0F7FFF86A09C0D9FF0AC0DAFF094A77
:1034A0000A2A070EF76403D00800F55005D0F6CFBE
:1034B000E1FFF7CFE2FFE750DF6EDF50D8A463EF04
:1034C0001AF065EF1AF040EF1AF012000A6ED9EC0C
:1034D0001CF00A50CFEC1CF00350CFEC1CF004C0E1
:1034E000D9FF05C0DAFFDECF08F0DDCF09F009C053
:1034F00008F0096A0850CFEC1CF004C0D9FF05C0E1
:10350000DAFFDF50CFEC1CF0D5EC1CF00B0E096E8F
:10351000260E086E5E0EE82EFED7082EFCD7092E6A
:10352000FAD71200CBEC1BF00CC02CF00DC02DF024
:103530002CC001F02DC002F0036A046A000E62EC98
:1035400013F001C00FF002C010F003C011F004C06E
:1035500012F00A0E136ED70E146E230E156E3C0E6B
:10356000166E77EC0EF00FC028F010C029F011C0D5
:103570002AF012C02BF0120008EC1AF00CC02CF04C
:103580000DC02DF02CC001F02DC002F0036A046ABA
:10359000000E62EC13F001C00FF002C010F003C087
:1035A00011F004C012F06F0E136E120E146E830E23
:1035B000156E3A0E166E77EC0EF00FC028F010C0A4
:1035C00029F011C02AF012C02BF012009C0E00014D
:1035D000A26F000EA36F98C0A4F099C0A5F0000ED2
:1035E000A76F000EA66F000EA96F000EA86FA40EA5
:1035F000566E000E576E9AC058F09BC059F0A20E3E
:103600005A6E000E5B6EA7EC19F00001A6519825CA
:10361000D96EA7519921DA6E000EDF6E1200010EED
:10362000076E200E01180210D8B419EF1BF01BEF23
:103630001BF034EF1BF0F70E036EFF0E046E01C09B
:1036400005F002C006F0035005260450062206507D
:1036500009E1050E055CD8A030EF1BF032EF1BF03E
:1036600034EF1BF0000E076E07C001F0026A120073
:10367000100E0001D86F000ED76F0A0EC76F020E32
:10368000C66F050E036ED70E046E000E056E000E9B
:10369000076E020E066E800E66EC1AF03C0E0C6E83
:1036A0001F0E0B6E000E036E0B0E046E000E056EE9
:1036B000000E076E020E066E800E66EC1AF0120007
:1036C000720ED36E0F0EC16E93809382800EC76E02
:1036D000280EC66E000EC56E130EC86E000E966ED6
:1036E000000E8D6E000E956E000E8C6E020EB9EC03
:1036F0001CF0060EB9EC1CF00F0EB9EC1CF0280EF5
:10370000B9EC1CF0010EB9EC1CF01200000E2E1AE0
:10371000000E2F1A000E301A800E311A2AC01AF02D
:103720002BC01BF02CC01CF02DC01DF02EC01EF0B5
:103730002FC01FF030C020F031C021F0E7EC09F0BD
:103740001AC02AF01BC02BF01CC02CF01DC02DF09D
:103750001200000E106E000E0F6EBAEF1BF00EC0BE
:1037600001F0026A0CC003F00DC004F076EC17F013
:103770000F4A102A0F500A24D96E10500B20DA6E0F
:10378000DF500E6E0E50D8A4C8EF1BF0CAEF1BF02E
:10379000AFEF1BF01200010E046E120E056E000E4C
:1037A000066E000E086E020E076E800E9EEC18F07C
:1037B000135012C00EF00F6A0EC00FF00E6A0E10FA
:1037C000106E0F50116E10C00CF011C00DF01200F1
:1037D000BF0E036EFF0E046E01C005F002C006F0BE
:1037E000035005260450062206500AE11A0E055C15
:1037F000D8A0FDEF1BF000EF1CF0010E01EF1CF054
:10380000000E016E026A1200015002100310041033
:10381000D8B40DEF1CF00FEF1CF017EF1CF0000EEA
:10382000011A000E021A000E031A800E041A01C0BB
:1038300001F002C002F003C003F004C004F0120063
:10384000D00E036EFF0E046E01C005F002C006F03C
:10385000035005260450062206500AE10A0E055CB4
:10386000D8A035EF1CF038EF1CF0010E39EF1CF03A
:10387000000E016E026A120001C003F002C004F0E3
:1038800044EF1CF0014A022A01C0D9FF02C0DAFF4E
:10389000DF50D8A44EEF1CF050EF1CF042EF1CF0AC
:1038A0000350015C016E04500258026E1200026E59
:1038B00094EC1CF0C58694EC1CF0C9CF03F094EC9A
:1038C0001CF00204D8B467EF1CF06AEF1CF0C58A44
:1038D0006BEF1CF0C59AC5880350120001EE00F092
:1038E000500EEE6AE806FDE100EEAAF02F0EEE6A39
:1038F000E806FDE15F6A5E6A000EF86E000104EF03
:1039000015F001500302F3CF05F0F4CF06F001509B
:103910000402F350062602500302F350062605C0A7
:1039200001F006C002F01200C5CF01F01F0E011613
:10393000D8A49DEF1CF09FEF1CF094EF1CF0C7B4CF
:10394000A4EF1CF0A6EF1CF094EF1CF01200016E27
:103950008D80060EE82EFED700D001C08CFF060E2B
:10396000E82EFED700D08D90060EE82EFED700D0B0
:103970001200026E8D9202380F0BA7EC1CF0025061
:103980000F0BA7EC1CF01200026E8D8202380F0B99
:10399000A7EC1CF002500F0BA7EC1CF01200026EFB
:1039A00094EC1CF002C0C9FF120094EC1CF0C5841A
:1039B000120094EC1CF0C580120094EC1CF0C5823F
:0439C00012001200DF
:020000040020DA
:08000000FFFFFFFFFFFFFFFF00
:020000040030CA
:0E000000000B1F1EFF8381FF0FC00FE00F409B
:00000001FF
