:020000040000FA
:0400000023EF0DF0ED
:100800000061782C2061792C20617A3A25640045BA
:0B0810007520736F753A2025780000FA
:10081C00000168BF14EF04F016EF04F019EF04F0B8
:10082C00699319EF04F068BF26EF04F0685106E1F4
:10083C006705D8B024EF04F026EF04F02CEF04F099
:10084C00000E346E010E336E30EF04F067C033F0DF
:10085C0068C034F065C035F066C036F069A939EF70
:10086C0004F03BEF04F041EF04F0FE0E3526FF0ED2
:10087C00362241EF04F01EC037F01FC038F020C004
:10088C0039F021C03AF022C03BF023C03CF024C028
:10089C003DF025C03EF0000E406E1F0E3F6E6F0EF9
:1008AC003F24D96E000E4020DA6E000EDF6E31EF61
:1008BC0005F03F06D8A040060F0E3714416E426A71
:1008CC0042BE72EF04F0425009E10A0E415CD8A01E
:1008DC0072EF04F074EF04F07CEF04F0570E412437
:1008EC00416E000E4220426E82EF04F0300E412425
:1008FC00416E000E4220426EBF0E276EFF0E286E18
:10090C002650296E2A6A2750292628502A222A5036
:10091C000AE11A0E295CD8A096EF04F099EF04F0C6
:10092C00010E9AEF04F0000E2F6E306AA9EF04F05E
:10093C0026C001F0026A69EC0EF001C02FF002C073
:10094C0030F0A9EF04F02F503010D8B4B0EF04F011
:10095C00B2EF04F0F2EF04F09F0E276EFF0E286E3C
:10096C00200E4110296E000E42102A6E27502926A7
:10097C0028502A222A500AE11A0E295CD8A0C9EF65
:10098C0004F0CCEF04F0010ECDEF04F0000E316E4C
:10099C00326ADDEF04F041C001F042C002F02BECF2
:1009AC000EF001C031F002C032F0DDEF04F0315036
:1009BC003210D8B4E4EF04F0E6EF04F0F2EF04F0F8
:1009CC0041C007F042C008F0DCEC0BF007C041F06E
:1009DC0008C042F0F2EF04F06F0E3F24D96E000E07
:1009EC004020DA6E41C0DFFF3306D8A0340635064E
:1009FC00D8A0360637C027F038C028F039C029F007
:100A0C003AC02AF03BC02BF03CC02CF03DC02DF07E
:100A1C003EC02EF0050E1CEF05F0D8902E322D3274
:100A2C002C322B322A32293228322732E82E13EF7D
:100A3C0005F027C037F028C038F029C039F02AC09B
:100A4C003AF02BC03BF02CC03CF02DC03DF02EC03A
:100A5C003EF031EF05F040BE3DEF05F0405009E1AE
:100A6C00020E3F5CD8A03DEF05F03FEF05F074EFB0
:100A7C0005F03750381039103A103B103C103D102F
:100A8C003E10D8A44CEF05F04EEF05F05FEF04F0EC
:100A9C0034BE5BEF05F0345006E13304D8B059EFA7
:100AAC0005F05BEF05F05FEF04F036BE66EF05F086
:100ABC00365008E13504D8A066EF05F068EF05F074
:100ACC0074EF05F0000169B36EEF05F070EF05F0FF
:100ADC005FEF04F074EF05F074EF05F0000169A905
:100AEC007AEF05F07CEF05F094EF05F03F06D8A007
:100AFC0040066F0E3F24D96E000E4020DA6E26C0E1
:100B0C00DFFF3F06D8A040066F0E3F24D96E000EC3
:100B1C004020DA6E300EDF6E94EF05F01CC011F041
:100B2C001DC012F06F0E3F24136E000E4020146E89
:100B3C0035C015F036C016F00EEC0BF011C01CF0E1
:100B4C0012C01DF0AAEF05F012001EC036F01FC037
:100B5C0037F020C038F021C039F022C03AF023C061
:100B6C003BF024C03CF025C03DF03DBEC0EF05F08D
:100B7C00C3EF05F0010EC4EF05F0000E346E356ABC
:100B8C0034503510D8B4CDEF05F0CFEF05F0E1EFD0
:100B9C0005F03D1E3C1E3B1E3A1E391E381E371EEC
:100BAC00366C000E3722382239223A223B223C2264
:100BBC003D22E1EF05F0000168BFE7EF05F0E9EF3A
:100BCC0005F0ECEF05F06993ECEF05F068BFF9EF79
:100BDC0005F0685106E16705D8B0F7EF05F0F9EFBD
:100BEC0005F0FFEF05F0000E316E010E306E03EFD5
:100BFC0006F067C030F068C031F065C032F066C0F6
:100C0C0033F034503510D8A40EEF06F010EF06F088
:100C1C0019EF06F069A515EF06F017EF06F01EEFB9
:100C2C0006F019EF06F03206D8A033061EEF06F0D8
:100C3C00000E3F6E1F0E3E6E6F0E3E24D96E000EE0
:100C4C003F20DA6E000EDF6EAAEF06F03E06D8A04B
:100C5C003F066F0E3E24D96E000E3F20DA6E36C072
:100C6C0001F037C002F038C003F039C004F03AC0CC
:100C7C0005F03BC006F03CC007F03DC008F00A0E82
:100C8C00096E000E0A6E000E0B6E000E0C6E000E3E
:100C9C000D6E000E0E6E000E0F6E000E106E6EECD2
:100CAC0009F001C026F002C027F003C028F004C0F0
:100CBC0029F005C02AF006C02BF007C02CF008C0A4
:100CCC002DF026C013F028C014F0C8EC0DF0135012
:100CDC00300FDF6E3006D8A031063206D8A03306AE
:100CEC0036C001F037C002F038C003F039C004F050
:100CFC003AC005F03BC006F03CC007F03DC008F020
:100D0C000A0E096E000E0A6E000E0B6E000E0C6EB3
:100D1C00000E0D6E000E0E6E000E0F6E000E106E9D
:100D2C0096EC08F001C036F002C037F003C038F082
:100D3C0004C039F005C03AF006C03BF007C03CF0E7
:100D4C0008C03DF0AAEF06F03FBEB5EF06F03F50ED
:100D5C0008E13E04D8A0B5EF06F0B7EF06F0EEEFD1
:100D6C0006F036503710381039103A103B103C1042
:100D7C003D10D8A4C4EF06F0C6EF06F02CEF06F039
:100D8C0031BED3EF06F0315006E13004D8B0D1EFCC
:100D9C0006F0D3EF06F02CEF06F033BEDEEF06F0D4
:100DAC00335008E13204D8A0DEEF06F0E0EF06F095
:100DBC00EEEF06F0000169B3E6EF06F0E8EF06F09F
:100DCC002CEF06F0EEEF06F0EEEF06F0EEEF06F08D
:100DDC0034503510D8A4F5EF06F0F7EF06F001EF1C
:100DEC0007F0000169A5FDEF06F0FFEF06F023EF19
:100DFC0007F001EF07F03E06D8A03F06345035103F
:100E0C00D8A40BEF07F00DEF07F013EF07F0000E6F
:100E1C002F6E2B0E2E6E19EF07F0000E2F6E2D0E6F
:100E2C002E6E19EF07F06F0E3E24D96E000E3F2088
:100E3C00DA6E2EC0DFFF23EF07F01CC011F01DC0CF
:100E4C0012F06F0E3E24136E000E3F20146E32C053
:100E5C0015F033C016F00EEC0BF011C01CF012C0E4
:100E6C001DF039EF07F0120045C0D9FF46C0DAFF7C
:100E7C00DECFF6FFDDCFF7FF0800F550250AD8A42A
:100E8C004AEF07F04CEF07F076EF08F045C0D9FFBA
:100E9C0046C0DAFFDE2A000EDD22000E0001666F6E
:100EAC00000E656F65C069F066C06AF067696869B5
:100EBC0045C0D9FF46C0DAFFDECFF6FFDDCFF7FF26
:100ECC000800F550640AD8B46EEF07F070EF07F025
:100EDC0084EF07F045C0D9FF46C0DAFFDECFF6FF3E
:100EEC00DDCFF7FF0800F550690AD8A480EF07F0B2
:100EFC0082EF07F0C6EF07F084EF07F045C0D9FF8B
:100F0C0046C0DAFFDE2A000EDD2247C0D9FF48C0FA
:100F1C00DAFFDFCF49F0020EDE26DFCF4AF0000EFB
:100F2C00DD2249C0D9FF4AC0DAFFDECF4DF0DDCF5C
:100F3C004EF0000E4EBEFF0E4F6E506E516E526E46
:100F4C00536E546E43C01CF044C01DF04DC01EF0D7
:100F5C004EC01FF04FC020F050C021F051C022F005
:100F6C0052C023F053C024F054C025F0ABEC05F074
:100F7C001CC043F01DC044F095EF08F095EF08F04D
:100F8C0045C0D9FF46C0DAFFDECFF6FFDDCFF7FF55
:100F9C000800F550780AD8B4D6EF07F0D8EF07F070
:100FAC00ECEF07F045C0D9FF46C0DAFFDECFF6FF05
:100FBC00DDCFF7FF0800F550580AD8A4E8EF07F08A
:100FCC00EAEF07F03CEF08F0ECEF07F045C0D9FF73
:100FDC0046C0DAFFDECFF6FFDDCFF7FF0800F5CF16
:100FEC005DF045C0D9FF46C0DAFFDE2A000EDD22D7
:100FFC0047C0D9FF48C0DAFFDFCF49F0020EDE262A
:10100C00DFCF4AF0000EDD2249C0D9FF4AC0DAFF1B
:10101C00DECF4BF0DDCF4CF04BC055F04CC056F052
:10102C00576A586A596A5A6A5B6A5C6A43C01CF010
:10103C0044C01DF055C01EF056C01FF057C020F024
:10104C0058C021F059C022F05AC023F05BC024F0E4
:10105C005CC025F05DC026F00EEC04F01CC043F023
:10106C001DC044F095EF08F095EF08F045C0D9FF8E
:10107C0046C0DAFFDECFF6FFDDCFF7FF0800F550F4
:10108C00250AD8A44CEF08F04EEF08F067EF08F0F3
:10109C0045C0D9FF46C0DAFFDE2A000EDD22000E65
:1010AC00026E250E016E43C003F044C004F034EC14
:1010BC000AF0000E446E010E436E95EF08F095EFAA
:1010CC0008F045C0D9FF46C0DAFFDE2A000EDD224B
:1010DC00000E446E000E436E95EF08F095EF08F08D
:1010EC0045C0D9FF46C0DAFFDECFF6FFDDCFF7FFF4
:1010FC000800F550016E026A43C003F044C004F0CE
:10110C0034EC0AF045C0D9FF46C0DAFFDE2A000EE7
:10111C00DD22000E446E010E436E95EF08F01200B6
:10112C00000E126E10BE9FEF08F09DEF08F0B3EFAB
:10113C0008F0101E0F1E0E1E0D1E0C1E0B1E0A1E7E
:10114C00096C000E0A220B220C220D220E220F22F9
:10115C001022010E126EB3EF08F008BEBAEF08F0C1
:10116C00B8EF08F0CEEF08F0081E071E061E051E8D
:10117C00041E031E021E016C000E02220322042216
:10118C000522062207220822010E121ACEEF08F0C1
:10119C0020EE13F0070EDE6AE806FDE209500A1095
:1011AC000B100C100D100E100F101010D8B4E1EF26
:1011BC0008F0E3EF08F041EF09F0010E116EF3EFC8
:1011CC0008F0D89009360A360B360C360D360E362A
:1011DC000F361036112AF3EF08F010AEF8EF08F0C6
:1011EC00FAEF08F0E7EF08F0FEEF08F0FEEF08F07A
:1011FC00D890133614361536163617361836193667
:10120C001A360950015C0A5002580B5003580C5006
:10121C0004580D5005580E5006580F5007581050D2
:10122C000858D8A01CEF09F01EEF09F031EF09F0B7
:10123C000950015E0A50025A0B50035A0C50045AC2
:10124C000D50055A0E50065A0F50075A1050085A96
:10125C00138031EF09F0D89010320F320E320D326C
:10126C000C320B320A320932112EFEEF08F041EF2C
:10127C0009F041EF09F01250D8B447EF09F049EFEB
:10128C0009F05BEF09F01A1E191E181E171E161E08
:10129C00151E141E136C000E142215221622172272
:1012AC00182219221A225BEF09F013C001F014C0A6
:1012BC0002F015C003F016C004F017C005F018C0FA
:1012CC0006F019C007F01AC008F06DEF09F0120013
:1012DC00000E126E08BE77EF09F075EF09F08BEF78
:1012EC0009F0081E071E061E051E041E031E021E04
:1012FC00016C000E02220322042205220622072280
:10130C000822010E126E8BEF09F010BE92EF09F05D
:10131C0090EF09F0A4EF09F0101E0F1E0E1E0D1E0B
:10132C000C1E0B1E0A1E096C000E0A220B220C222C
:10133C000D220E220F221022A4EF09F009500A10E0
:10134C000B100C100D100E100F101010D8B4B1EFB4
:10135C0009F0B3EF09F007EF0AF0010E116EC3EFBD
:10136C0009F0D89009360A360B360C360D360E3687
:10137C000F361036112AC3EF09F010AEC8EF09F082
:10138C00CAEF09F0B7EF09F0CEEF09F0CEEF09F094
:10139C000950015C0A5002580B5003580C50045869
:1013AC000D5005580E5006580F500758105008583D
:1013BC00D8A0E3EF09F0E5EF09F0F7EF09F00950D9
:1013CC00015E0A50025A0B50035A0C50045A0D502D
:1013DC00055A0E50065A0F50075A1050085AF7EF7C
:1013EC0009F0D89010320F320E320D320C320B3213
:1013FC000A320932112ECEEF09F007EF0AF007EF8F
:10140C000AF01250D8B40DEF0AF00FEF0AF021EFEA
:10141C000AF0081E071E061E051E041E031E021ED1
:10142C00016C000E0222032204220522062207224E
:10143C00082221EF0AF001C001F002C002F003C043
:10144C0003F004C004F005C005F006C006F007C0A8
:10145C0007F008C008F033EF0AF012000350041034
:10146C00D8B43BEF0AF03DEF0AF048EF0AF0035016
:10147C000410D8A444EF0AF046EF0AF04DEF0AF03E
:10148C0048EF0AF0015017EC0FF0A2EF0AF020EE33
:10149C0004F00350D9260450DA22DE50DE10D8B402
:1014AC005AEF0AF05CEF0AF079EF0AF020EE04F044
:1014BC000350D9260450DA2210EE02F00350E12634
:1014CC000450E222DE50E65CE650800A096EDE50E3
:1014DC00800A0958D8B075EF0AF077EF0AF0A2EF3E
:1014EC000AF079EF0AF020EE02F00350D9260450EE
:1014FC00DA22DECF05F0DDCF06F003C0D9FF04C041
:10150C00DAFFDECF07F0DDCF08F005500724D96EE7
:10151C0006500820DA6E01C0DFFF20EE02F0035007
:10152C00D9260450DA22DE2A000EDD22A2EF0AF0C0
:10153C00A2EF0AF0A2EF0AF0120006EC0FF0130E65
:10154C00036E010E046E800E056E000E076E120EF9
:10155C00066E8DEC0CF0750E056E000E076E010E0E
:10156C00066EB10E086E000E096EA00E79EC0BF033
:10157C00680E0001B119D8B4C6EF0AF0C8EF0AF032
:10158C00F1EF0AF0000E036E010E046EC00E056E34
:10159C00000E076E130E066E8DEC0CF08F0E000114
:1015AC00DD6F000EDE6F0F0EDF6F080EE06FB1C047
:1015BC00E1F0E26BF4EC0CF08F0E036E000E046E97
:1015CC00C00E056E000E076E140E066E8DEC0CF040
:1015DC008A8C00EF0BF0B90E036E000E046EC00E79
:1015EC00056E000E076E110E066E8DEC0CF08A8ED9
:1015FC0000EF0BF0020E0001EE6F450EED6FA90E21
:10160C00E82EFED7ED2FFCD7EE2FFAD700D0120024
:10161C00000169A114EF0BF016EF0BF022EF0BF0A9
:10162C0013C00AF014C00BF011C00CF012C00DF076
:10163C00A2EC0DF022EF0BF016BE27EF0BF029EF0A
:10164C000BF02FEF0BF015C01AF016C01BF033EF98
:10165C000BF0000E1B6E000E1A6E000E196E000EB3
:10166C00186E47EF0BF0000E026E200E016E11C0CB
:10167C0003F012C004F034EC0AF0184A192A47EFB0
:10168C000BF01A50185C1950800A176E1B50800A08
:10169C001758D8A054EF0BF056EF0BF039EF0BF0B6
:1016AC00000169B15CEF0BF05EEF0BF06AEF0BF031
:1016BC0013C00AF014C00BF011C00CF012C00DF0E6
:1016CC00A2EC0DF06AEF0BF013C001F014C002F0A5
:1016DC0079EC0DF01A500124116E1B500220126E81
:1016EC0078EF0BF012000C6E0FEC0FF00C5000ECBE
:1016FC000FF0055000EC0FF013EC0FF00C5001093B
:10170C0000EC0FF0000E00016E6F000E6D6FBCEF61
:10171C000BF0010E6D250A6E000E6E210B6E06503D
:10172C000A1807E107500B18D8A49FEF0BF0A1EF94
:10173C000BF0ABEF0BF0010EEAEC0DF008C0D9FF8B
:10174C0009C0DAFFDF6EB5EF0BF0000EEAEC0DF01E
:10175C0008C0D9FF09C0DAFFDF6EB5EF0BF0084AFD
:10176C00092A00016D4B6E2BBCEF0BF006506D5D22
:10177C006E51800A0A6E0750800A0A58D8A0C9EF29
:10178C000BF0CBEF0BF08FEF0BF0CDEF0BF00BEC76
:10179C000FF01A0E0B6E5E0E0A6E6E0EE82EFED752
:1017AC000A2EFCD70B2EFAD700D012009F0E096E12
:1017BC00FF0E0A6E07C00BF008C00CF009500B2688
:1017CC000A500C220C500AE11A0E0B5CD8A0F1EF57
:1017DC000BF0F4EF0BF0010EF5EF0BF0000E0D6EAD
:1017EC000E6A05EF0CF007C001F008C002F04BECDC
:1017FC000EF001C00DF002C00EF005EF0CF00D5014
:10180C000E10D8B40CEF0CF00EEF0CF016EF0CF031
:10181C005F0E0714076E086A1AEF0CF01AEF0CF043
:10182C0007C007F008C008F012000A6E0FEC0FF0AA
:10183C000A5000EC0FF0035000EC0FF0000E00010A
:10184C006E6F000E6D6F39EF0CF004C0D9FF05C040
:10185C00DAFFDF5000EC0FF0044A052A00016D4B53
:10186C006E2B39EF0CF006506D5D6E51800A086ED0
:10187C000750800A0858D8A046EF0CF048EF0CF03F
:10188C002BEF0CF04AEF0CF00BEC0FF01A0E096E6C
:10189C005E0E086E6E0EE82EFED7082EFCD7092EB3
:1018AC00FAD700D012003B0E056E000E076E0E0E1E
:1018BC00066EA30E086E000E096EA00E79EC0BF0EE
:1018CC000001A451A3C0EDF0EE6BEDC0EEF0ED6B9A
:1018DC00ED116B6FEE516C6F8F0EDD6F000EDE6FC6
:1018EC00010EDF6F080EE06F800EE26F010EE16FEC
:1018FC00F4EC0CF08F0E036E000E046EC00E056E31
:10190C00000E076E140E066E8DEC0CF012008D940A
:10191C00055087EC0EF08D84000E00016E6F000EEA
:10192C006D6FAFEF0CF003C0D9FF04C0DAFFDF50CE
:10193C0087EC0EF0034A042A410E086EEE0EE82ED8
:10194C00FED7082EFCD700D000016D4B6E2BAFEFED
:10195C000CF06D51065C0750800A086E6E51800ABF
:10196C000858D8B0BCEF0CF0BEEF0CF099EF0CF0AF
:10197C00C0EF0CF01200D9C05EF0DAC05FF0000EC0
:10198C000001646F000E636FE1EF0CF0D7C043F001
:10199C00D8C044F05E0E456E000E466EDBC047F0BC
:1019AC00DCC048F03AEC07F0435000016327445088
:1019BC006423E1EF0CF05EC0F6FF5FC0F7FF080098
:1019CC00F5500009D8A4EDEF0CF0EFEF0CF0CCEFD4
:1019DC000CF063C0D7F064C0D8F01200E10E000127
:1019EC00E56F000EE66FDDC0E7F0DEC0E8F0000E3C
:1019FC00EA6F000EE96F000EEC6F000EEB6FE70E56
:101A0C00D76F000ED86FDFC0D9F0E0C0DAF0E50E6A
:101A1C00DB6F000EDC6FC1EC0CF0D7C0E3F0D8C06C
:101A2C00E4F00001E951DD25D96EEA51DE21DA6ED0
:101A3C00000EDF6E22EF0DF01200B60EF66E1D0ECC
:101A4C00F76E000EF86E01EE00F010EE25F00900B6
:101A5C00F5CFEEFFE550E150FAE1DB0EF66E1D0E10
:101A6C00F76E000EF86E00EEB3F010EE24F00900E5
:101A7C00F5CFEEFFE550E150FAE100EE60F0530EC9
:101A8C00EE6AE806FDE1000EF86E080EF76E000136
:101A9C00A5EF0EF006EC0FF0CA0E036E000E046EEE
:101AAC00800E056E000E076E0D0E066E8DEC0CF0A2
:101ABC001B0E036EB20E046E000E056E000E076E4A
:101ACC00010E066EA00E1BEC0CF01C0E036EB20E7B
:101ADC00046E000E056E000E076E010E066EA00E53
:101AEC001BEC0CF0120001C005F002C006F083EFF5
:101AFC000DF0014A022A83EF0DF001C0D9FF02C09C
:101B0C00DAFFDF50D8A48DEF0DF08FEF0DF07FEFE3
:101B1C000DF091EF0DF005C003F006C004F0031EAC
:101B2C00041E034A042A01500324016E02500420AF
:101B3C00026EA1EF0DF01200000E106E000E0F6E73
:101B4C00B5EF0DF00EC001F0026A0CC003F00DC031
:101B5C0004F034EC0AF00F4A102AB5EF0DF00F50D8
:101B6C000A24D96E10500B20DA6EDF500E6E0E5018
:101B7C00D8A4C3EF0DF0C5EF0DF0A8EF0DF0C7EF33
:101B8C000DF0120014BED5EF0DF0145006E1130445
:101B9C00D8B0D3EF0DF0D5EF0DF0E3EF0DF013C08F
:101BAC0015F014C016F0151E161E154A162A15C06F
:101BBC0013F016C014F0E9EF0DF013C013F014C0BD
:101BCC0014F0E9EF0DF01200036EC2EC0EF0C586B6
:101BDC00C2EC0EF0C9CF04F0C2EC0EF00304D8B482
:101BEC00FAEF0DF0FEEF0DF0026A022AFFEF0DF096
:101BFC00026A023A0246C5500218DF0B0218C56E83
:101C0C00C58804500AEF0EF0120093809382310EB7
:101C1C00C86E800EC76E280EC66E000EC56E000E06
:101C2C00956E000E8C6E010E966E000E8D6E060E6D
:101C3C0087EC0EF00F0E87EC0EF0380E87EC0EF0E2
:101C4C00939C939E000E8A6E12009F0E036EFF0EE5
:101C5C00046E200E0110056E000E0210066E03506D
:101C6C0005260450062206500AE11A0E055CD8A07F
:101C7C0042EF0EF045EF0EF0010E46EF0EF0000EA7
:101C8C00016E026A4AEF0EF012009F0E036EFF0EF9
:101C9C00046E01C005F002C006F003500526045086
:101CAC00062206500AE11A0E055CD8A060EF0EF071
:101CBC0063EF0EF0010E64EF0EF0000E016E026A7F
:101CCC0068EF0EF01200BF0E036EFF0E046E01C023
:101CDC0005F002C006F003500526045006220650FB
:101CEC000AE11A0E055CD8A07EEF0EF081EF0EF023
:101CFC00010E82EF0EF0000E016E026A86EF0EF0FE
:101D0C001200026E8D82410E016EEE0EE82EFED791
:101D1C00012EFCD700D002C08CFF410E016EEE0EDE
:101D2C00E82EFED7012EFCD700D08D92410E016E0D
:101D3C00EE0EE82EFED7012EFCD700D012000BECD5
:101D4C000EF06B0E036EB20E046E000E056E000EDE
:101D5C00076E010E066EA00E1BEC0CF0A3EC0AF045
:101D6C0050EC0DF0BAEF0EF059EC0CF0BAEF0EF09F
:101D7C00BAEF0EF000EF00F0C6EF0EF0C6EF0EF06B
:101D8C00C5CF01F01F0E0116D8A4CFEF0EF0D1EF86
:101D9C000EF0C6EF0EF0C7B4D6EF0EF0D8EF0EF083
:101DAC00C6EF0EF0DAEF0EF012004572726F206380
:101DBC006F6D2061204D50553630353000546573B1
:101DCC00746520646520636F6E6578616F3A006698
:101DDC00616269616E436F6E6578616F20737563C4
:101DEC00656469646100436F6E66696775726163EF
:031DFC00616F0014
:101E0000026EC2EC0EF002C0C9FF12008D94010EEA
:101E100087EC0EF01200C2EC0EF0C5841200C2EC8A
:101E20000EF0C5801200C2EC0EF0C5821200120046
:020000040020DA
:08000000FFFFFFFFFFFFFFFF00
:020000040030CA
:0E000000000C1F1EFF8381FF0FC00FE00F409A
:00000001FF
