:020000040000FA
:040000007CEF3FF062
:107E9600010069EC3FF0C580120069EC3FF0C58433
:107EA6001200026E69EC3FF002C0C9FF1200720EAA
:107EB600D36E0F0EC16E93809382800EC76E280E0E
:107EC600C66E000EC56E130EC86E1200C5CF01F049
:107ED6001F0E0116D8A472EF3FF074EF3FF069EF62
:107EE6003FF0C7B479EF3FF07BEF3FF069EF3FF02B
:107EF6001200960EF66E7E0EF76E000EF86E0900F4
:107F0600F5CF18F00900F5CF19F000EE0DF00B0EC5
:107F1600EE6AE806FDE10001C8EF3FF00A6E4CECA0
:107F26003FF00A5054EC3FF0035054EC3FF0000E83
:107F3600176E000E166EABEF3FF004C0D9FF05C0FA
:107F4600DAFFDF5054EC3FF0044A052A164A172A96
:107F56000650165C1750800A086E0750800A0858AB
:107F6600D8A0B8EF3FF0BAEF3FF0A0EF3FF050ECEB
:107F76003FF00B0E096E260E086E5E0EE82EFED73B
:107F8600082EFCD7092EFAD712005AEC3FF0B50E90
:107F9600036E180E046E000E056E000E076E010EBF
:107FA600066E300E91EC3FF0020E0C6E040E0B6E58
:107FB600BA0EE82EFED70B2EFCD70C2EFAD700D021
:107FC600B50E036E190E046E000E056E000E076EDA
:107FD600010E066E300E91EC3FF0020E0C6E040E92
:107FE6000B6EBA0EE82EFED70B2EFCD70C2EFAD748
:0A7FF60000D0CAEF3FF000EF00F0EA
:020000040020DA
:08000000FFFFFFFFFFFFFFFF00
:020000040030CA
:0E000000000B1F1EFF8381FF0FC00FE00F409B
:00000001FF
