:020000040000FA
:0400000007EF00F016
:0A0008005D82BCED06F0C7EF09F0C1
:10080000002523582C2523782C25235800252378D0
:100810002C2523582C252378000000016BBF13EFF3
:1008200004F015EF04F016EF04F05A926BBF23EFBB
:1008300004F06B5106E16A05D8B021EF04F023EF14
:1008400004F029EF04F0000E366E010E356E2DEF28
:1008500004F06AC035F06BC036F068C037F069C08C
:1008600038F05AA836EF04F038EF04F03CEF04F00B
:10087000FE0E3726FF0E382220C039F021C03AF094
:1008800022C03BF023C03CF024C03DF025C03EF028
:1008900026C03FF027C040F0000E426E1F0E416E92
:1008A000000E8F6F07EF05F04106D8A042060F0E2D
:1008B0003914436E446A44BE67EF04F0445009E1C2
:1008C0000A0E435CD8A067EF04F069EF04F071EF03
:1008D00004F0570E4324436E000E4420446E77EF1D
:1008E00004F0300E4324436E000E4420446EBF0ECD
:1008F000296EFF0E2A6E28502B6E2C6A29502B264B
:100900002A502C222C500AE11A0E2B5CD8A08BEF17
:1009100004F08EEF04F0010E8FEF04F0000E316E44
:10092000326A31503210D8B498EF04F09AEF04F0E4
:10093000CAEF04F09F0E296EFF0E2A6E200E4310A0
:100940002B6E000E44102C6E29502B262A502C2280
:100950002C500AE11A0E2B5CD8A0B1EF04F0B4EFD2
:1009600004F0010EB5EF04F0000E336E346A33501C
:100970003410D8B4BEEF04F0C0EF04F0CAEF04F0B6
:1009800043C009F044C00AF0A0EC08F009C043F0ED
:100990000AC044F0700E4124D96E000E4220DA6E77
:1009A00043C0DFFF3506D8A036063706D8A0380684
:1009B00039C029F03AC02AF03BC02BF03CC02CF0E3
:1009C0003DC02DF03EC02EF03FC02FF040C030F0B3
:1009D000050EF4EF04F0D89030322F322E322D3243
:1009E0002C322B322A322932E82EEBEF04F029C0C8
:1009F00039F02AC03AF02BC03BF02CC03CF02DC09F
:100A00003DF02EC03EF02FC03FF030C040F042BE5F
:100A100013EF05F0425009E1020E415CD8A013EF3C
:100A200005F015EF05F045EF05F039503A103B1091
:100A30003C103D103E103F104010D8A422EF05F0AE
:100A400024EF05F054EF04F036BE31EF05F03650D8
:100A500006E13504D8B02FEF05F031EF05F054EF83
:100A600004F038BE3CEF05F0385008E13704D8A058
:100A70003CEF05F03EEF05F045EF05F05AB243EFCD
:100A800005F045EF05F054EF04F05AA84AEF05F0E1
:100A90004CEF05F062EF05F04106D8A04206700E5B
:100AA0004124D96E000E4220DA6E28C0DFFF4106D5
:100AB000D8A04206700E4124D96E000E4220DA6E94
:100AC000300EDF6E1EC013F01FC014F0700E4124F4
:100AD000156E000E4220166E37C017F038C018F0A1
:100AE00094EC07F013C01EF014C01FF0120047C0B2
:100AF000D9FF48C0DAFFDECFF6FFDDCFF7FF0800F1
:100B0000F550250AD8A487EF05F089EF05F0A0EF8E
:100B100006F047C0D9FF48C0DAFFDE2A000EDD220A
:100B2000000E0001696F000E686F68C05AF069C05E
:100B30005BF06A696B69000E596E000E586EE7EF44
:100B400005F05A8047C0D9FF48C0DAFFDE2A000E00
:100B5000DD22E7EF05F05A82A2EF05F05A84A2EFFA
:100B600005F05A86A2EF05F05A88A2EF05F0000EB4
:100B7000596E010E586EE7EF05F047C0D9FF48C027
:100B8000DAFFDECFF6FFDDCFF7FF0800F5504B6E42
:100B90004C6A4C50000AD8B4D0EF05F0B7EF05F01E
:100BA0004B50200AD8B4B1EF05F0030AD8B4B4EF23
:100BB00005F0080AD8B4AEEF05F0060AD8B4A1EFE4
:100BC00005F01D0AD8B4ABEF05F0B7EF05F05850AB
:100BD0005910D8B4EEEF05F0F0EF05F0BDEF05F0D9
:100BE0005AA0F5EF05F0F7EF05F0F8EF05F05A928F
:100BF00047C0D9FF48C0DAFFDECFF6FFDDCFF7FFF1
:100C00000800F550780AD8B408EF06F00AEF06F0AD
:100C10001CEF06F047C0D9FF48C0DAFFDECFF6FF71
:100C2000DDCFF7FF0800F550580AD8A41AEF06F0F8
:100C30001CEF06F06AEF06F047C0D9FF48C0DAFFA4
:100C4000DECFF6FFDDCFF7FF0800F5CF57F047C046
:100C5000D9FF48C0DAFFDE2A000EDD2249C0D9FFE5
:100C60004AC0DAFFDFCF4BF0020EDE26DFCF4CF0BA
:100C7000000EDD224BC0D9FF4CC0DAFFDECF4DF0B5
:100C8000DDCF4EF04DC04FF04EC050F0516A526A69
:100C9000536A546A556A566A45C01EF046C01FF032
:100CA0004FC020F050C021F051C022F052C023F0BC
:100CB00053C024F054C025F055C026F056C027F08C
:100CC00057C028F00DEC04F01EC045F01FC046F0E0
:100CD000BBEF06F047C0D9FF48C0DAFFDECFF6FF12
:100CE000DDCFF7FF0800F550250AD8A47AEF06F00B
:100CF0007CEF06F093EF06F047C0D9FF48C0DAFF5B
:100D0000DE2A000EDD22000E046E250E036E45C0A5
:100D100005F046C006F02FEC07F0000E466E010EFF
:100D2000456EBBEF06F047C0D9FF48C0DAFFDE2AA8
:100D3000000EDD22000E466E000E456EBBEF06F083
:100D400047C0D9FF48C0DAFFDECFF6FFDDCFF7FF9F
:100D50000800F550036E046A45C005F046C006F071
:100D60002FEC07F047C0D9FF48C0DAFFDE2A000E9B
:100D7000DD228DEF06F012000600D9CF01F0DACFA8
:100D800002F09EA6C6EF06F0C8EF06F029EF07F0C6
:100D9000C698C6BCCEEF06F0D0EF06F0D7EF06F04F
:100DA000C6AED5EF06F0D7EF06F0DCEF06F0C9CF00
:100DB0006FF0C69CC69EC688C7AAE1EF06F0E3EFB7
:100DC00006F0EAEF06F0C7B4E8EF06F0EAEF06F047
:100DD0000DEF07F0C9CF6FF0C7B0F1EF06F0F3EFFA
:100DE00006F0ECEF06F0C9CF6EF0600E5C24D96E11
:100DF000DA6A000EDA226EC0DFFF5C2A060E5C188B
:100E0000D8A405EF07F007EF07F009EF07F0000E91
:100E10005C6EC688C69628EF07F0C7AA12EF07F0E7
:100E200014EF07F01BEF07F0C7A419EF07F01BEF53
:100E300007F028EF07F0C9CF6FF0C79082CFC9FF46
:100E4000C688C7B026EF07F028EF07F021EF07F0BC
:100E50009E9602C0DAFF01C0D9FF5D9211000550D5
:100E60000610D8B436EF07F038EF07F041EF07F07F
:100E700005500610D8A43FEF07F041EF07F046EF0A
:100E800007F00350F7EC09F093EF07F020EE04F0C1
:100E90000550D9260650DA22DE50DE10D8B453EFC2
:100EA00007F055EF07F070EF07F020EE04F0055063
:100EB000D9260650DA2210EE02F00550E12606503F
:100EC000E222DE50E65CE650800A0B6EDE50800ABD
:100ED0000B58D8B06EEF07F070EF07F093EF07F004
:100EE00020EE02F00550D9260650DA22DECF07F0B8
:100EF000DDCF08F005C0D9FF06C0DAFFDECF09F06C
:100F0000DDCF0AF007500924D96E08500A20DA6EA6
:100F100003C0DFFF20EE02F00550D9260650DA228A
:100F2000DE2A000EDD2212005AA099EF07F09BEF97
:100F300007F0A5EF07F015C00CF016C00DF013C0B8
:100F40000EF014C00FF022EC09F018BEAAEF07F063
:100F5000ACEF07F0B2EF07F017C01CF018C01DF09F
:100F6000B6EF07F0000E1D6E000E1C6E000E1B6E1D
:100F7000000E1A6EC8EF07F0000E046E200E036E0E
:100F800013C005F014C006F02FEC07F01A4A1B2A14
:100F90001C501A5C1B50800A196E1D50800A19588B
:100FA000D8A0D5EF07F0D7EF07F0BCEF07F05AB0A5
:100FB000DCEF07F0DEEF07F0E8EF07F015C00CF00C
:100FC00016C00DF013C00EF014C00FF022EC09F0A3
:100FD00015C003F016C004F09AEC09F01C5003246D
:100FE000136E1D500420146E1200C00EE2EC09F0C6
:100FF000900E0001B66F000EB76F0D0EB86F080EA1
:10100000B96F63C0BAF0BB6B64C0BCF0BD6B65C0A8
:10101000BEF0BF6BF9EC08F0000E00016C6F1CEF26
:1010200008F0900E6C25D96EDA6A000EDA22DF50D5
:10103000D7EC09F000016C2B9F0E036E000E046EBE
:101040009AEC09F000016C51CA6FCB6B0350CA5D7A
:101050000450CB59D8A02FEF08F031EF08F011EF72
:1010600008F01200800EE2EC09F09F0E0001B66F4E
:10107000000EB76F010EB86F080EB96F60C0BAF0FE
:10108000BB6B61C0BCF0BD6B62C0BEF0BF6BF9EC66
:1010900008F0000E00016C6F59EF08F09F0E6C25F0
:1010A000D96EDA6A000EDA22DF50D7EC09F00001BF
:1010B0006C2B9F0E036E000E046E9AEC09F000017B
:1010C0006C51CA6FCB6B0350CA5D0450CB59D8A08A
:1010D0006CEF08F06EEF08F04EEF08F01200B0C0B1
:1010E000B4F0B1C0B5F0000E0001676F000E666F7E
:1010F0008DEF08F0AEC045F0AFC046F0B40E476EBD
:10110000000E486EB2C049F0B3C04AF077EC05F06B
:1011100045500001662746506723B4C0F6FFB5C0AE
:10112000F7FF0800F5500009D8A499EF08F09BEFED
:1011300008F07AEF08F066C0AEF067C0AFF01200BA
:101140009F0E0B6EFF0E0C6E09C00DF00AC00EF064
:101150000B500D260C500E220E500AE11A0E0D5C9B
:10116000D8A0B5EF08F0B8EF08F0010EB9EF08F01D
:10117000000E0F6E106A0F501010D8B4C2EF08F0B6
:10118000C4EF08F0CAEF08F05F0E0914096E0A6A8E
:10119000CEEF08F009C009F00AC00AF01200720E82
:1011A000D36E0F0EC16E000E956E000E8C6E000E8B
:1011B000966E000E8D6E020EE2EC09F0060EE2EC69
:1011C00009F00F0EE2EC09F0280EE2EC09F0010E36
:1011D000E2EC09F093809382800EC76E300EC86EE9
:1011E000360EC66E010EC56EF28EF28C9D869E96F0
:1011F0001200BA0E0001C26F000EC36FB6C0C4F079
:10120000B7C0C5F0000EC76F000EC66F000EC96FE5
:10121000000EC86FC40EAE6F000EAF6FB8C0B0F056
:10122000B9C0B1F0C20EB26F000EB36F6FEC08F030
:101230000001C651B625D96EC751B721DA6E000E2E
:10124000DF6E1200000E126E000E116E33EF09F009
:1012500010C003F0046A0EC005F00FC006F02FECBA
:1012600007F0114A122A11500C24D96E12500D2089
:10127000DA6EDF50106E1050D8A441EF09F043EF42
:1012800009F028EF09F012009F0E056EFF0E066EA2
:10129000200E0310076E000E0410086E055007267E
:1012A0000650082208500AE11A0E075CD8A05BEF2E
:1012B00009F05EEF09F0010E5FEF09F0000E036E1A
:1012C000046A12009F0E056EFF0E066E03C007F043
:1012D00004C008F0055007260650082208500AE10D
:1012E0001A0E075CD8A077EF09F07AEF09F0010E2B
:1012F0007BEF09F0000E036E046A1200BF0E056E4C
:10130000FF0E066E03C007F004C008F00550072664
:101310000650082208500AE11A0E075CD8A093EF85
:1013200009F096EF09F0010E97EF09F0000E036E39
:10133000046A120003C005F004C006F0A2EF09F031
:10134000034A042A03C0D9FF04C0DAFFDF50D8A43F
:10135000ACEF09F0AEEF09F0A0EF09F00550035C27
:10136000036E06500458046E1200036E8D80060E44
:10137000E82EFED700D003C08CFF060EE82EFED765
:1013800000D08D90060EE82EFED700D0120000EEA1
:1013900060F04E0EEE6AE806FDE15C6A5B6A5A6A2E
:1013A0005D905D92000EF86E0001EDEF09F0046EA5
:1013B0008D8204380F0BB5EC09F004500F0BB5EC1F
:1013C00009F01200046E8D9204380F0BB5EC09F091
:1013D00004500F0BB5EC09F01200CFEC08F032EC22
:1013E00008F0F5EC07F0EFEF09F007EF00F012005E
:020000040020DA
:08000000FFFFFFFFFFFFFFFF00
:020000040030CA
:0E000000000B1F1EFF8381FF0FC00FE00F409B
:00000001FF
