:020000040000FA
:0400000029EF3FF0B5
:107DB60066416249614EFFEC3EF0C5821200FFEC5F
:107DC6003EF0C5801200FFEC3EF0C58412000D6E39
:107DD600FFEC3EF00DC0C9FF1200720ED36E0F0EFF
:107DE600C16E93809382800EC76E280EC66E000EFB
:107DF600C56E130EC86E1200C5CF0CF01F0E0C1602
:107E0600D8A408EF3FF00AEF3FF0FFEF3EF0C7B40B
:107E16000FEF3FF011EF3FF0FFEF3EF012000D6E57
:107E2600FFEC3EF0C586FFEC3EF0C9CF0EF0FFEC4E
:107E36003EF00D04D8B422EF3FF025EF3FF0C58A9F
:107E460026EF3FF0C59AC5880E501200B60EF66EA4
:107E56007D0EF76E000EF86E00EE17F010EE06F0CF
:107E66000900F5CFEEFFE550E150FAE100EE01F032
:107E76000B0EEE6AE806FDE1000142EF3FF0F0EC82
:107E86003EF0B50E0E6E170E0F6E000E106E000E43
:107E9600126E060E116EA20E6FEC3FF0FF0E0E6E06
:107EA600190E0F6E000E106E000E126E010E116E80
:107EB600A20E6FEC3FF0B30E0F6E030E106E000EA7
:107EC600116E000E136E090E126EA20EA6EC3FF096
:107ED6006BEF3FF000EF00F0156EE2EC3EF0155050
:107EE600EAEC3EF00E50EAEC3EF0000E026E000E9A
:107EF600016E89EF3FF00FC0D9FF10C0DAFFDF50E7
:107F0600EAEC3EF00F4A102A014A022A1150015C9F
:107F16000250800A136E1250800A1358D8A096EFAA
:107F26003FF098EF3FF07EEF3FF0E6EC3EF00B0EB1
:107F3600146E260E136E5E0EE82EFED7132EFCD799
:107F4600142EFAD71200166EE2EC3EF01650EAEC4A
:107F56003EF00F50EAEC3EF0DEEC3EF01650010922
:107F6600EAEC3EF0000E026E000E016EE3EF3FF00B
:107F7600010E0124146E000E0220156E1250141804
:107F860007E113501518D8A4CBEF3FF0CDEF3FF023
:107F9600D7EF3FF0010E12EC3FF010C0D9FF11C031
:107FA600DAFFDF6EDFEF3FF0000E12EC3FF010C09D
:107FB600D9FF11C0DAFFDF6E104A112A014A022AE0
:107FC6001250015C0250800A146E1350800A145835
:107FD600D8A0F0EF3FF0F2EF3FF0BBEF3FF0E6EC5A
:107FE6003EF00B0E156E260E146E5E0EE82EFED7B4
:0A7FF600142EFCD7152EFAD7120046
:020000040020DA
:08000000FFFFFFFFFFFFFFFF00
:020000040030CA
:0E000000000B1F1EFF8381FF0FC00FE00F409B
:00000001FF
